:1000000049C0000065C0000063C0000061C000007E
:100010005FC000005DC000005BC0000059C0000070
:1000200057C0000055C00000C4C3000051C000000C
:100030004FC0000091C300004BC0000049C0000049
:1000400047C0000022C3000044C0000041C00000BF
:100050003FC000003DC000003BC0000039C00000B0
:1000600037C0000035C0000033C0000031C00000C0
:100070002FC000002DC000002BC0000029C00000D0
:1000800027C0000025C0000023C0000021C00000E0
:100090001FC0000011241FBECFEFD0E1DEBFCDBFD7
:1000A00011E0A0E0B1E0E4EFF4E100E00BBF02C03A
:1000B00007900D92A635B107D9F721E0A6E5B1E08A
:1000C00001C01D92AE38B207E1F781D20C94780AD4
:1000D00097CF1F920F920FB60F9211240BB60F926B
:1000E0002F933F934F935F936F937F938F939F9340
:1000F000AF93BF93CF93EF93FF93EDEEF0E0C0810A
:100100008091EC00682F70E0807F8083729562950B
:100110006F7067277F7067278091EE008F7509F0F9
:1001200098952091F2008091F300E6E5F1E090E0EF
:10013000880F991F880F991F880F991F2295269560
:100140002770822B918380838091EF008F70828350
:1001500090E0009759F0E9E5F1E0875A9E4FAAEF49
:10016000B0E02C912193E817F907D9F71092EE002F
:1001700080E88093EF00FB01EE0FFF1FEA59FE4F6E
:100180000190F081E02D86E591E00995C093ED00A6
:10019000FF91EF91CF91BF91AF919F918F917F91FF
:1001A0006F915F914F913F912F910F900BBE0F90E8
:1001B0000FBE0F901F901895CF93DF93FB01208106
:1001C00031812115384008F098959281993008F0D6
:1001D00098958F3008F098958295807F8093ED00F8
:1001E0008091EF00807C21F08091EE0086FF55C069
:1001F0001092EE001092EF0082818F3F61F18081BA
:1002000091819695879596958795969587958093F4
:10021000F30080818295880F807E8093F200109297
:10022000F1001092F0002281222379F0DF01139671
:1002300080E090E0CAEFD0E02D91288301962281E2
:10024000422F50E084179507B8F3EFEEF0E080817D
:10025000282B20831BC08081918196958795969548
:100260008795969587958093F30080818295880F76
:10027000807E8093F2001092F10084E08093F00081
:10028000AFEEB0E09C918281892B8C93EFEEF0E091
:1002900080818064808381E001C080E0DF91CF9124
:1002A00008958F3008F06DC0E82FF0E0EE0FFF1FCB
:1002B000EA59FE4F31832083982F9295907F909337
:1002C000ED00232BD9F41092EE001092EF0021E004
:1002D00030E0A90102C0440F551F8A95E2F7CA0118
:1002E000EEEDF0E02081809582238083EFEDF0E059
:1002F000808190958923808380E008959091EF001C
:10030000907C09F040C01092EE00EFEEF0E0108219
:100310001092EC009B0136952795369527953695DA
:1003200027952093F3006295660F607E6093F2003C
:100330009A013695279536952795369527952093DA
:10034000F7004295440F407E4093F6001092F5006E
:100350001092F40090E8908321E030E0A90102C0FF
:10036000440F551F8A95E2F7CA01EEEDF0E02081B7
:10037000822B8083EFEDF0E08081892B808380E009
:10038000089581E0089581E00895CF93DF9386E09A
:100390008093E2008CE08093E3008AE58093E400A0
:1003A00080E0CDEED0E0AEEEB0E0EFEEF0E0982FE2
:1003B0009295907F98831C9210828F5F8F30B9F74F
:1003C000E8EDF0E080818260808380EA8093DB004A
:1003D000DF91CF910895F894EFDE7894089520E0AE
:1003E00030E04FE753E4CFD320E030E040EC51E47D
:1003F000B8D29B01AC0160E070E08FE793E448D293
:1004000018D3CB010895CF92DF92EF92FF926B0148
:100410007C0120E030E040E451E4B1D318165CF0F8
:1004200020E030E040E450E4C701B60196D28823D2
:1004300054F4589811C00F2EC12CD12CF0E4EF2E9B
:10044000F1E4FF2EF02D289886E20DD1C701B60108
:10045000C6DF09D1289A589AFF90EF90DF90CF908D
:100460000895509A6B9A6C9A6D9860E070E0CB0199
:10047000CACF0895CF92DF92EF92FF926B017C0179
:1004800020E030E040EC50E47AD318165CF020E035
:1004900030E040E050E4C701B6015FD2882364F445
:1004A000749813C00F2EFDECCF2EFCECDF2EFCEE6B
:1004B000EF2EF0E4FF2EF02D28988EE2D4D0C70165
:1004C000B6018DDFD0D0289A749AFF90EF90DF901C
:1004D000CF900895249A60E070E0CB01CBCF0895CF
:1004E000CF92DF92EF92FF926B017C0120E030E02F
:1004F00040E451E444D318165CF020E030E040E4DE
:1005000050E4C701B60129D2882354F4739811C06E
:100510000F2EC12CD12CF0E4EF2EF1E4FF2EF02DA4
:10052000289886E3A0D0C701B60159DF9CD0289A4D
:10053000739AFF90EF90DF90CF90089560E070E0A5
:10054000CB01CECF08958DDFC5DFF8DF85C00895DC
:10055000FC011382659B02C021E023830895CF93A1
:10056000DF93EC018B8184FF0BC081E080936201FB
:1005700087E091E09F938F93C0D30F900F9002C0BC
:10058000109262018B8185FF0BC081E08093610135
:1005900086E191E09F938F93B0D30F900F9002C0AC
:1005A00010926101DF91CF91089561E083E390E0C3
:1005B00058D1EBDEC8DF5CD0A3D087E291E09F93F7
:1005C0008F939BD3269A78940F900F900895CF9392
:1005D000DF93CDB7DEB766970FB6F894DEBF0FBED8
:1005E000CDBF23E030E03A83298381E08B833D87D0
:1005F0002C878E87DADF2FEA32E044E050E065E0B6
:1006000070E081E04EDECE010196A2DFCE010C96B5
:100610009FDF1BE0CE010C969BDF48E050E0BE015F
:10062000615F7F4FCE01049611D3892B91F0BE01FB
:10063000645F7F4F80E0CFDEFE013C96DE011196C5
:10064000912F01900D929A95E1F7882311F0279A46
:1006500001C027988895DECF84B18F6084B981E589
:100660008CBD289A08958EBD0DB407FEFDCF089568
:1006700084B5826084BD84B5816084BDEEE6F0E01F
:10068000808181608083789408951F920F920FB6C5
:100690000F9211240BB60F922F933F934F935F93BA
:1006A0006F937F938F939F93AF93BF93EF93FF933A
:1006B000F89480916201882359F060E070E080E452
:1006C00091E4A1DE87E893E10197F1F700C0000013
:1006D00060E070E0CB0197DE7894FF91EF91BF91DD
:1006E000AF919F918F917F916F915F914F913F91CA
:1006F0002F910F900BBE0F900FBE0F901F9018956B
:10070000E0E8F0E080818062808380818061808386
:10071000808182608083808181608083E1E8F0E075
:100720008081806180838081886080838FE19EE406
:1007300090938900809388008FE19AE490938B00D6
:1007400080938A00AFE6B0E08C9184608C93259A08
:1007500080818260808308951F920F920FB60F925E
:1007600011240BB60F922F933F934F935F936F9388
:100770007F938F939F93AF93BF93EF93FF938DE3FB
:1007800091E09F938F93B9D20F900F90FF91EF91CB
:10079000BF91AF919F918F917F916F915F914F9199
:1007A0003F912F910F900BBE0F900FBE0F901F9097
:1007B00018951F920F920FB60F9211240BB60F923D
:1007C0002F933F934F935F936F937F938F939F9359
:1007D000AF93BF93EF93FF93789480916101882347
:1007E00029F060E070E080EA90E444DE80916301EB
:1007F0009091640185339C407CF0809106018823B0
:1008000031F01092060181E08093650105C081E01E
:1008100080930601109265012C98FF91EF91BF9192
:10082000AF919F918F917F916F915F914F913F9188
:100830002F910F900BBE0F900FBE0F901F90189529
:10084000E0ECF0E0908195FFFDCF8093C60081E061
:100850000895E0ECF0E080818823ECF78091C600F9
:1008600008959093C5008093C40086E08093C200F1
:10087000662341F0E1ECF0E080818061808380813B
:100880008860808369E274E080E294E0ECC10895BE
:100890005058BB27AA270ED038C129D130F02ED10D
:1008A00020F031F49F3F11F41EF41EC10EF4E095C8
:1008B000E7FB14C1E92F3AD180F3BA176207730737
:1008C0008407950718F071F49EF552C10EF4E09577
:1008D0000B2EBA2FA02D0B01B90190010C01CA01FA
:1008E000A0011124FF27591B99F0593F50F4503EA5
:1008F00068F11A16F040A22F232F342F4427585F97
:10090000F3CF469537952795A795F0405395C9F7AE
:100910007EF41F16BA0B620B730B840BBAF0915066
:10092000A1F0FF0FBB1F661F771F881FC2F70EC005
:10093000BA0F621F731F841F48F4879577956795D8
:10094000B795F7959E3F08F0B3CF9395880F08F0C1
:100950009927EE0F9795879508959CD008F481E02C
:1009600008950CD0D2C0CAD040F0C1D030F021F4EC
:100970005F3F19F0B3C05111FCC0B6C0D7D098F397
:100980009923C9F35523B1F3951B550BBB27AA2710
:1009900062177307840738F09F5F5F4F220F331F82
:1009A000441FAA1FA9F333D00E2E3AF0E0E830D04E
:1009B00091505040E695001CCAF729D0FE2F27D051
:1009C000660F771F881FBB1F261737074807AB071F
:1009D000B0E809F0BB0B802DBF01FF2793585F4F94
:1009E0002AF09E3F510568F079C0C3C05F3FECF329
:1009F000983EDCF3869577956795B795F7959F5F59
:100A0000C9F7880F911D9695879597F90895E1E0AC
:100A1000660F771F881FBB1F621773078407BA070B
:100A200020F0621B730B840BBA0BEE1F88F7E09566
:100A3000089504D06894B1119CC008957FD088F0C7
:100A40009F5790F0B92F9927B751A0F0D1F0660FBA
:100A5000771F881F991F1AF0BA95C9F712C0B130D5
:100A600081F086D0B1E0089583C0672F782F882762
:100A7000B85F39F0B93FCCF3869577956795B39514
:100A8000D9F73EF490958095709561957F4F8F4F83
:100A90009F4F0895990F0008550FAA0BE0E8FEEF4D
:100AA00016161706E807F907C0F012161306E40732
:100AB000F50798F0621B730B840B950B39F40A262B
:100AC00061F0232B242B252B21F408950A2609F409
:100AD000A140A6958FEF811D811D089597F99F670D
:100AE00080E870E060E008959FEF80EC08950024B6
:100AF0000A941616170618060906089500240A9483
:100B000012161306140605060895092E0394000C08
:100B100011F4882352F0BB0F40F4BF2B11F460FF97
:100B200004C06F5F7F4F8F4F9F4F089557FD9058C0
:100B3000440F551F59F05F3F71F04795880F97FBA1
:100B4000991F61F09F3F79F087950895121613065B
:100B50001406551FF2CF4695F1DF08C0161617068A
:100B60001806991FF1CF86957105610508940895BF
:100B7000E894BB2766277727CB0197F908958ADF8A
:100B800008F48FEF08950BD0C0CFB1DF28F0B6DFA7
:100B900018F0952309F0A2CFA7CF1124EACFC6DF22
:100BA000A0F3959FD1F3950F50E0551F629FF00180
:100BB000729FBB27F00DB11D639FAA27F00DB11DD9
:100BC000AA1F649F6627B00DA11D661F829F222762
:100BD000B00DA11D621F739FB00DA11D621F839FE9
:100BE000A00D611D221F749F3327A00D611D231FBF
:100BF000849F600D211D822F762F6A2F11249F570D
:100C000050408AF0E1F088234AF0EE0FFF1FBB1F2F
:100C1000661F771F881F91505040A9F79E3F5105CE
:100C200070F05CCFA6CF5F3FECF3983EDCF3869587
:100C300077956795B795F795E7959F5FC1F7FE2B79
:100C4000880F911D9695879597F90895FB01DC0112
:100C500004C08D910190801921F441505040C8F793
:100C6000881B990B08950F931F93CF93DF930097E1
:100C700031F46115710519F480E090E039C08B0101
:100C8000EC016EE070E081E090E038D2FC01892B4D
:100C900099F380E883830115110571F013870287AA
:100CA00081E883838091840190918501892B21F4CF
:100CB000F0938501E09384012097C9F0D187C08724
:100CC0008381826083838091860190918701892B43
:100CD00071F4F0938701E0938601809188019091EF
:100CE0008901892B21F4F0938901E0938801CF01D8
:100CF000DF91CF911F910F910895CF93DF93CDB7DF
:100D0000DEB7AE014B5F5F4FFA0161917191AF01A8
:100D1000809186019091870103D0DF91CF91089552
:100D20002F923F924F925F926F927F928F929F92FB
:100D3000AF92BF92CF92DF92EF92FF920F931F93E9
:100D4000CF93DF93CDB7DEB72C970FB6F894DEBF05
:100D50000FBECDBF7C016B018A01FC011782168298
:100D6000838181FFB0C1CE0101964C01F7019381CF
:100D7000F60193FD859193FF81916F01882309F41A
:100D80009EC1853239F493FD859193FF81916F0166
:100D9000853221F4B70190E015D3E8CF512C312CE6
:100DA00020E02032A0F48B3269F030F4803259F028
:100DB000833269F420612CC08D3239F0803339F4EC
:100DC000216026C02260246023C0286021C027FD46
:100DD00027C030ED380F3A3078F426FF06C0FAE02D
:100DE0005F9E300D1124532E13C08AE0389E300DC3
:100DF0001124332E20620CC08E3221F426FD5FC1F7
:100E0000206406C08C3611F4206802C0883641F494
:100E1000F60193FD859193FF81916F018111C1CFFF
:100E2000982F9F7D9554933028F40C5F1F4FFFE35C
:100E3000F9830DC0833631F0833771F0833509F0C3
:100E400057C021C0F801808189830E5F1F4F442461
:100E50004394512C540114C03801F2E06F0E711C00
:100E6000F801A080B18026FF03C0652D70E002C0AC
:100E70006FEF7FEFC5012C879AD22C0183012C855F
:100E80002F77222E16C03801F2E06F0E711CF80188
:100E9000A080B18026FF03C0652D70E002C06FEF17
:100EA0007FEFC5012C8771D22C012C852068222E62
:100EB000830123FC19C0832D90E048165906A0F445
:100EC000B70180E290E07ED23A94F5CFF50127FC9D
:100ED000859127FE81915F01B70190E073D23110B7
:100EE0003A94F1E04F1A51084114510479F7DEC0E9
:100EF000843611F0893631F5F80127FF07C060818B
:100F00007181828193810C5F1F4F08C06081718164
:100F1000072E000C880B990B0E5F1F4F2F76722E39
:100F200097FF09C090958095709561957F4F8F4F81
:100F30009F4F2068722E2AE030E0A4017BD2A82EB9
:100F4000A81843C0853729F42F7EB22E2AE030E05E
:100F500025C0F22FF97FBF2E8F36C1F018F48835E7
:100F600079F0ADC0803719F0883721F0A8C02F2F55
:100F70002061B22EB4FE0DC08B2D8460B82E09C046
:100F800024FF0AC09F2F9660B92E06C028E030E0EB
:100F900005C020E130E002C020E132E0F801B7FEF8
:100FA00007C060817181828193810C5F1F4F06C0F1
:100FB0006081718180E090E00E5F1F4FA4013AD202
:100FC000A82EA818FB2DFF777F2E76FE0BC0372D9D
:100FD0003E7FA51450F474FE0AC072FC08C0372D81
:100FE0003E7E05C0BA2C372D03C0BA2C01C0B52CEB
:100FF00034FF0DC0FE01EA0DF11D8081803311F434
:10100000397E09C032FF06C0B394B39404C0832F65
:10101000867809F0B39433FD12C030FF06C05A2C15
:10102000B31418F4530C5B18B32CB31460F4B70169
:1010300080E290E03C87C6D1B3943C85F6CFB314F0
:1010400010F43B1801C0312C34FF11C0B70180E30C
:1010500090E03C87B7D13C8532FF16C031FD03C01C
:1010600088E790E002C088E590E0B7010CC0832FCC
:10107000867851F031FF02C08BE201C080E237FD7B
:101080008DE2B70190E09ED1A51430F4B70180E362
:1010900090E098D15A94F8CFAA94F401EA0DF11D8A
:1010A0008081B70190E08ED1A110F6CF332009F4F2
:1010B0005DCEB70180E290E085D13A94F7CFF70199
:1010C0008681978102C08FEF9FEF2C960FB6F89420
:1010D000DEBF0FBECDBFDF91CF911F910F91FF906B
:1010E000EF90DF90CF90BF90AF909F908F907F90C8
:1010F0006F905F904F903F902F9008950F931F93A4
:10110000CF93DF93869F8001879F100D969F100DD0
:101110001124C8010DD0EC01009721F0A80160E076
:1011200070E03ED1CE01DF91CF911F910F910895D4
:10113000CF93DF938230910510F482E090E0E0914C
:101140008C01F0918D0120E030E0C0E0D0E03097DC
:1011500011F14081518148175907C0F048175907CC
:1011600061F482819381209719F09B838A832BC03D
:1011700090938D0180938C0126C02115310519F0C3
:101180004217530718F49A01BE01DF01EF010280F4
:10119000F381E02DDCCF2115310509F1281B390B36
:1011A0002430310590F412968D919C91139761151E
:1011B000710521F0FB019383828304C090938D011C
:1011C00080938C01FD01329644C0FD01E20FF31FB4
:1011D00081939193225031092D933C933AC02091F1
:1011E0008A0130918B01232B41F42091020130912F
:1011F000030130938B0120938A01209100013091EB
:1012000001012115310541F42DB73EB7409104018C
:1012100050910501241B350BE0918A01F0918B015F
:10122000E217F307A0F42E1B3F0B2817390778F0BD
:10123000AC014E5F5F4F2417350748F04E0F5F1F1C
:1012400050938B0140938A018193919302C0E0E017
:10125000F0E0CF01DF91CF9108950F931F93CF93CB
:10126000DF93009709F48CC0FC013297138212823D
:1012700000918C0110918D010115110581F42081DF
:101280003181820F931F20918A0130918B012817A1
:10129000390779F5F0938B01E0938A0171C0D80189
:1012A00040E050E0AE17BF0750F412962D913C91EC
:1012B0001397AD012115310509F1D901F3CF9D0136
:1012C000DA013383228360817181860F971F821731
:1012D000930769F4EC0128813981260F371F2E5FAF
:1012E0003F4F318320838A819B8193838283452B67
:1012F00029F4F0938D01E0938C0142C01396FC9386
:10130000EE931297ED01499159919E01240F351FDB
:10131000E217F30771F480819181840F951F029683
:1013200011969C938E938281938113969C938E93B6
:101330001297E0E0F0E0D80112968D919C911397FE
:10134000009719F0F8018C01F6CF8D919C919801CE
:101350002E5F3F4F820F931F20918A0130918B01A6
:101360002817390769F4309729F410928D011092EB
:101370008C0102C01382128210938B0100938A01A8
:10138000DF91CF911F910F910895FC01059061505D
:1013900070400110D8F7809590958E0F9F1F08958B
:1013A000DC0101C06D9341505040E0F70895FC010D
:1013B0006150704001900110D8F7809590958E0F84
:1013C0009F1F08950F931F93CF93DF93FB012381FA
:1013D00021FD03C08FEF9FEF28C022FF16C046817A
:1013E0005781248135814217530744F4A081B1818C
:1013F0009D012F5F3F4F318320838C93268137815E
:101400002F5F3F4F3783268310C0EB01092F182F22
:101410000084F185E02D0995892BE1F68E819F816D
:1014200001969F838E83812F902FDF91CF911F9103
:101430000F910895FA01AA27283051F1203181F146
:10144000E8946F936E7F6E5F7F4F8F4F9F4FAF4FCC
:10145000B1E03ED0B4E03CD0670F781F891F9A1FDF
:10146000A11D680F791F8A1F911DA11D6A0F711D93
:10147000811D911DA11D20D009F468943F912AE09F
:10148000269F11243019305D3193DEF6CF01089587
:10149000462F4770405D4193B3E00FD0C9F7F6CFB8
:1014A000462F4F70405D4A3318F0495D31FD405280
:1014B000419302D0A9F7EACFB4E0A6959795879516
:1014C00077956795BA95C9F70097610571050895F5
:1014D0009B01AC010A2E06945795479537952795A1
:1014E000BA95C9F7620F731F841F951FA01D089539
:0414F000F894FFCF9E
:1014F40000008E012000010D0A5475726E206F6E7B
:1015040020686F726E000D0A5475726E206F6E2023
:10151400776970657273000D0A496E697469616C4C
:10152400697A6174696F6E20646F6E65000D0A4F8D
:10153400555450555420434F4D50415245204D4130
:0615440054434820420060
:00000001FF
