S01600005374656572696E675F776865656C2E7372656359
S113000049C0000064C0000062C0000060C000007D
S11300105EC000005CC000005AC0000058C0000070
S113002056C0000054C0000052C0000050C0000080
S11300304EC000004CC000004AC0000048C0000090
S113004046C0000044C0000081C0000040C0000061
S11300503EC000003CC000003AC0000038C00000B0
S113006036C0000034C0000032C0000030C00000C0
S11300702EC000002CC000002AC0000028C00000D0
S113008026C0000024C0000022C0000020C00000E0
S11300901EC0000011241FBECFEFD0E1DEBFCDBFD4
S11300A011E0A0E0B1E0E4ECFDE000E00BBF02C031
S11300B007900D92A634B107D9F721E0A6E4B1E088
S11300C001C01D92A937B207E1F762D179C698CF72
S11300D08098ECE7F0E0808180648083EAE7F0E0D8
S11300E08081846080838081826080838081806855
S11300F080830895EAE7F0E0808186FDFDCFEAE79A
S1130100F0E080818F7780830895009729F4ECE7ED
S1130110F0E08081808307C0019729F4ECE7F0E0E8
S1130120808181608083EAE7F0E08081806480835D
S1130130808186FDFDCF809178009091790096951D
S1130140879596958795FB01848308951F920F9256
S11301500FB60F9211240BB60F922F933F934F9328
S11301605F936F937F938F939F93AF93BF93CF933B
S1130170EF93FF93EDEEF0E0C0818091EC00682FE7
S113018070E0807F8083729562956F7067277F70BF
S113019067278091EE008F7509F098952091F20001
S11301A08091F300E6E4F1E090E0880F991F880F56
S11301B0991F880F991F229526952770822B91836A
S11301C080838091EF008F70828390E0009759F0D4
S11301D0E9E4F1E0875B9E4FAAEFB0E02C91219314
S11301E0E817F907D9F71092EE0080E88093EF0042
S11301F0FB01EE0FFF1FEF5AFE4F0190F081E02D3F
S113020086E491E00995C093ED00FF91EF91CF91C1
S1130210BF91AF919F918F917F916F915F914F911A
S11302203F912F910F900BBE0F900FBE0F901F9018
S11302301895CF93DF93FB0120813181211538403C
S113024008F098959281993008F098958F3008F0CD
S113025098958295807F8093ED008091EF00807C5B
S113026021F08091EE0086FF55C01092EE001092AE
S1130270EF0082818F3F61F180819181969587950E
S113028096958795969587958093F30080818295BE
S1130290880F807E8093F2001092F1001092F0009B
S11302A02281222379F0DF01139680E090E0CAEFE7
S11302B0D0E02D91288301962281422F50E08417AB
S11302C09507B8F3EFEEF0E08081282B20831BC064
S11302D08081918196958795969587959695879532
S11302E08093F30080818295880F807E8093F20052
S11302F01092F10084E08093F000AFEEB0E09C91A6
S11303008281892B8C93EFEEF0E08081806480837E
S113031081E001C080E0DF91CF910895CF93DF9316
S113032086E08093E2008CE08093E3008AE580938A
S1130330E40080E0CDEED0E0AEEEB0E0EFEEF0E031
S1130340982F9295907F98831C9210828F5F8F30A4
S1130350B9F7E8EDF0E080818260808380EA8093E1
S1130360DB00DF91CF910895F89463DF78940895CA
S1130370D5DF61E083E390E0BAD073D0A9DE86E0F4
S113038091E09F938F9321D1269A0F900F90089517
S1130390CF93DF93CDB7DEB766970FB6F894DEBF81
S11303A00FBECDBFE5DF2FE130E03A83298381E042
S11303B08B833D872C878E87CE01019661D0CE0139
S11303C00C965ED0BE016F5F7F4F80E090E09DDEB3
S11303D0BE01645F7F4F80E090E097DE8BDE80E1BA
S11303E08F870F2EFBE2EF2EF1E0FF2EF02D0F2E64
S11303F0FBE0DF2EF02D07E311E0CE010C9640D098
S113040067DEBE01645F7F4F80E090E07EDE72DED7
S113041048E050E0BE01615F7F4FCE0104967ED07C
S1130420892BE1F0FF92EF92D0D0BE01645F7F4F41
S113043081E09ADFFE013C96DE0111969D2D01902C
S11304400D929A95E1F70F900F90882339F01F933E
S11304500F93BBD0279A0F900F9001C027988895CF
S1130460CCCF6B986C98739A749A6D98759A2498FB
S11304702C9A23982B9A229821982A9A299A08959B
S1130480FC011382649903C081E0838304C06399EF
S113049002C082E083831A9904C0838184608383C9
S11304A005C0199903C08381886083831C9903C0A4
S11304B0838180618383659903C0838180628383A0
S11304C01B9903C08381806483830895E0ECF0E08A
S11304D0908195FFFDCF8093C60081E00895E0EC04
S11304E0F0E080818823ECF78091C6000895909312
S11304F0C5008093C40086E08093C200662341F067
S1130500E1ECF0E080818061808380818860808379
S11305106FE672E086E692E00EC00895FB01DC010E
S113052004C08D910190801921F441505040C8F7C6
S1130530881B990B08950F931F93CF93DF93009714
S113054031F46115710519F480E090E039C08B0134
S1130550EC016EE070E081E090E038D2FC01892B80
S113056099F380E883830115110571F013870287DD
S113057081E8838380916F0190917001892B21F42C
S1130580F0937001E0936F012097C9F0D187C08781
S11305908381826083838091710190917201892BA0
S11305A071F4F0937201E093710180917301909161
S11305B07401892B21F4F0937401E0937301CF014A
S11305C0DF91CF911F910F910895CF93DF93CDB712
S11305D0DEB7AE014B5F5F4FFA0161917191AF01DC
S11305E0809171019091720103D0DF91CF910895B0
S11305F02F923F924F925F926F927F928F929F922F
S1130600AF92BF92CF92DF92EF92FF920F931F931C
S1130610CF93DF93CDB7DEB72C970FB6F894DEBF38
S11306200FBECDBF7C016B018A01FC0117821682CB
S1130630838181FFB0C1CE0101964C01F701938102
S1130640F60193FD859193FF81916F01882309F44D
S11306509EC1853239F493FD859193FF81916F0199
S1130660853221F4B70190E015D3E8CF512C312C19
S113067020E02032A0F48B3269F030F4803259F05B
S1130680833269F420612CC08D3239F0803339F41F
S1130690216026C02260246023C0286021C027FD79
S11306A027C030ED380F3A3078F426FF06C0FAE060
S11306B05F9E300D1124532E13C08AE0389E300DF6
S11306C01124332E20620CC08E3221F426FD5FC12A
S11306D0206406C08C3611F4206802C0883641F4C8
S11306E0F60193FD859193FF81916F018111C1CF33
S11306F0982F9F7D9554933028F40C5F1F4FFFE390
S1130700F9830DC0833631F0833771F0833509F0F6
S113071057C021C0F801808189830E5F1F4F442494
S11307204394512C540114C03801F2E06F0E711C33
S1130730F801A080B18026FF03C0652D70E002C0DF
S11307406FEF7FEFC5012C879AD22C0183012C8592
S11307502F77222E16C03801F2E06F0E711CF801BB
S1130760A080B18026FF03C0652D70E002C06FEF4A
S11307707FEFC5012C8771D22C012C852068222E95
S1130780830123FC19C0832D90E048165906A0F478
S1130790B70180E290E07ED23A94F5CFF50127FCD0
S11307A0859127FE81915F01B70190E073D23110EA
S11307B03A94F1E04F1A51084114510479F7DEC01C
S11307C0843611F0893631F5F80127FF07C06081BE
S11307D07181828193810C5F1F4F08C06081718198
S11307E0072E000C880B990B0E5F1F4F2F76722E6D
S11307F097FF09C090958095709561957F4F8F4FB5
S11308009F4F2068722E2AE030E0A4017BD2A82EEC
S1130810A81843C0853729F42F7EB22E2AE030E091
S113082025C0F22FF97FBF2E8F36C1F018F488351A
S113083079F0ADC0803719F0883721F0A8C02F2F88
S11308402061B22EB4FE0DC08B2D8460B82E09C079
S113085024FF0AC09F2F9660B92E06C028E030E01E
S113086005C020E130E002C020E132E0F801B7FE2B
S113087007C060817181828193810C5F1F4F06C024
S11308806081718180E090E00E5F1F4FA4013AD235
S1130890A82EA818FB2DFF777F2E76FE0BC0372DD0
S11308A03E7FA51450F474FE0AC072FC08C0372DB4
S11308B03E7E05C0BA2C372D03C0BA2C01C0B52C1E
S11308C034FF0DC0FE01EA0DF11D8081803311F467
S11308D0397E09C032FF06C0B394B39404C0832F99
S11308E0867809F0B39433FD12C030FF06C05A2C49
S11308F0B31418F4530C5B18B32CB31460F4B7019D
S113090080E290E03C87C6D1B3943C85F6CFB31423
S113091010F43B1801C0312C34FF11C0B70180E33F
S113092090E03C87B7D13C8532FF16C031FD03C04F
S113093088E790E002C088E590E0B7010CC0832FFF
S1130940867851F031FF02C08BE201C080E237FDAE
S11309508DE2B70190E09ED1A51430F4B70180E395
S113096090E098D15A94F8CFAA94F401EA0DF11DBD
S11309708081B70190E08ED1A110F6CF332009F425
S11309805DCEB70180E290E085D13A94F7CFF701CC
S11309908681978102C08FEF9FEF2C960FB6F89453
S11309A0DEBF0FBECDBFDF91CF911F910F91FF909E
S11309B0EF90DF90CF90BF90AF909F908F907F90FB
S11309C06F905F904F903F902F9008950F931F93D7
S11309D0CF93DF93869F8001879F100D969F100D04
S11309E01124C8010DD0EC01009721F0A80160E0AA
S11309F070E03ED1CE01DF91CF911F910F91089508
S1130A00CF93DF938230910510F482E090E0E0917F
S1130A107701F091780120E030E0C0E0D0E0309739
S1130A2011F14081518148175907C0F048175907FF
S1130A3061F482819381209719F09B838A832BC070
S1130A40909378018093770126C02115310519F020
S1130A504217530718F49A01BE01DF01EF01028027
S1130A60F381E02DDCCF2115310509F1281B390B69
S1130A702430310590F412968D919C911397611551
S1130A80710521F0FB019383828304C09093780164
S1130A9080937701FD01329644C0FD01E20FF31FFC
S1130AA081939193225031092D933C933AC0209124
S1130AB0750130917601232B41F42091020130918C
S1130AC00301309376012093750120910001309148
S1130AD001012115310541F42DB73EB740910401C0
S1130AE050910501241B350BE0917501F0917601BD
S1130AF0E217F307A0F42E1B3F0B2817390778F0F1
S1130B00AC014E5F5F4F2417350748F04E0F5F1F4F
S1130B1050937601409375018193919302C0E0E074
S1130B20F0E0CF01DF91CF9108950F931F93CF93FE
S1130B30DF93009709F48CC0FC0132971382128270
S1130B4000917701109178010115110581F420813C
S1130B503181820F931F20917501309176012817FE
S1130B60390779F5F0937601E093750171C0D801E6
S1130B7040E050E0AE17BF0750F412962D913C911F
S1130B801397AD012115310509F1D901F3CF9D0169
S1130B90DA013383228360817181860F971F821764
S1130BA0930769F4EC0128813981260F371F2E5FE2
S1130BB03F4F318320838A819B8193838283452B9A
S1130BC029F4F0937801E093770142C01396FC93E3
S1130BD0EE931297ED01499159919E01240F351F0F
S1130BE0E217F30771F480819181840F951F0296B7
S1130BF011969C938E938281938113969C938E93EA
S1130C001297E0E0F0E0D80112968D919C91139731
S1130C10009719F0F8018C01F6CF8D919C91980101
S1130C202E5F3F4F820F931F209175013091760103
S1130C302817390769F4309729F410927801109233
S1130C40770102C01382128210937601009375011A
S1130C50DF91CF911F910F910895FC010590615090
S1130C6070400110D8F7809590958E0F9F1F0895BE
S1130C70DC0101C06D9341505040E0F70895FC0140
S1130C806150704001900110D8F7809590958E0FB7
S1130C909F1F08950F931F93CF93DF93FB0123812D
S1130CA021FD03C08FEF9FEF28C022FF16C04681AD
S1130CB05781248135814217530744F4A081B181BF
S1130CC09D012F5F3F4F318320838C932681378191
S1130CD02F5F3F4F3783268310C0EB01092F182F56
S1130CE00084F185E02D0995892BE1F68E819F81A1
S1130CF001969F838E83812F902FDF91CF911F9137
S1130D000F910895FA01AA27283051F1203181F179
S1130D10E8946F936E7F6E5F7F4F8F4F9F4FAF4FFF
S1130D20B1E03ED0B4E03CD0670F781F891F9A1F12
S1130D30A11D680F791F8A1F911DA11D6A0F711DC6
S1130D40811D911DA11D20D009F468943F912AE0D2
S1130D50269F11243019305D3193DEF6CF010895BA
S1130D60462F4770405D4193B3E00FD0C9F7F6CFEB
S1130D70462F4F70405D4A3318F0495D31FD4052B3
S1130D80419302D0A9F7EACFB4E0A6959795879549
S1130D9077956795BA95C9F7009761057105089528
S1130DA09B01AC010A2E06945795479537952795D4
S1130DB0BA95C9F7620F731F841F951FA01D08956C
S1070DC0F894FFCFD1
S1130DC40000790120000D0A496E697469616C6937
S1130DD47A6174696F6E20636F6D706C65746500FD
S1130DE40D0A5265636569766564000D0A44696693
S1130DF4666572656E74000D0A4D6573736167658B
S1090E042073656E74000A
S9030000FC
