:1000000049C0000064C0000062C0000060C0000081
:100010005EC000005CC000005AC0000058C0000074
:1000200056C0000054C0000052C0000050C0000084
:100030004EC000004CC000004AC000003EC300009B
:1000400046C00000CEC2000043C0000040C0000017
:100050003EC000003CC000003AC0000038C00000B4
:1000600036C0000034C0000032C0000030C00000C4
:100070002EC000002CC000002AC0000028C00000D4
:1000800026C0000024C0000022C0000020C00000E4
:100090001EC0000011241FBECFEFD0E1DEBFCDBFD8
:1000A00011E0A0E0B1E0ECE2FBE000E00BBF02C039
:1000B00007900D92A232B107D9F721E0A2E2B1E098
:1000C00001C01D92A337B207E1F77ED22DC598CFAC
:1000D0001F920F920FB60F9211240BB60F922F930F
:1000E0003F934F935F936F937F938F939F93AF93C0
:1000F000BF93CF93EF93FF93EDEEF0E0C08180913B
:10010000EC00682F70E0807F8083729562956F703D
:1001100067277F7067278091EE008F7509F09895AB
:100120002091F2008091F300E2E2F1E090E0880F8C
:10013000991F880F991F880F991F22952695277060
:10014000822B918380838091EF008F70828390E077
:10015000009759F0E5E2F1E08B5D9E4FAAEFB0E029
:100160002C912193E817F907D9F71092EE0080E857
:100170008093EF00FB01EE0FFF1FEE5CFE4F01903E
:10018000F081E02D82E291E00995C093ED00FF91AE
:10019000EF91CF91BF91AF919F918F917F916F918F
:1001A0005F914F913F912F910F900BBE0F900FBE1B
:1001B0000F901F901895CF93DF93FB012081318121
:1001C0002115384008F098959281993008F098955B
:1001D0008F3008F098958295807F8093ED00809114
:1001E000EF00807C21F08091EE0086FF55C01092D8
:1001F000EE001092EF0082818F3F61F1808191814A
:100200009695879596958795969587958093F30013
:1002100080818295880F807E8093F2001092F10099
:100220001092F0002281222379F0DF01139680E002
:1002300090E0CAEFD0E02D91288301962281422FD1
:1002400050E084179507B8F3EFEEF0E08081282B9B
:1002500020831BC08081918196958795969587957F
:10026000969587958093F30080818295880F807E94
:100270008093F2001092F10084E08093F000AFEEE2
:10028000B0E09C918281892B8C93EFEEF0E080812D
:100290008064808381E001C080E0DF91CF91089588
:1002A0008F3008F06DC0E82FF0E0EE0FFF1FEE5C1E
:1002B000FE4F31832083982F9295907F9093ED008D
:1002C000232BD9F41092EE001092EF0021E030E0E1
:1002D000A90102C0440F551F8A95E2F7CA01EEED4D
:1002E000F0E02081809582238083EFEDF0E0808133
:1002F00090958923808380E008959091EF00907C11
:1003000009F040C01092EE00EFEEF0E01082109283
:10031000EC009B01369527953695279536952795C0
:100320002093F3006295660F607E6093F2009A015D
:100330003695279536952795369527952093F7007E
:100340004295440F407E4093F6001092F5001092C3
:10035000F40090E8908321E030E0A90102C0440F4E
:10036000551F8A95E2F7CA01EEEDF0E02081822B5D
:100370008083EFEDF0E08081892B808380E0089519
:1003800081E0089581E00895CF93DF9386E0809324
:10039000E2008CE08093E3008AE58093E40080E053
:1003A000CDEED0E0AEEEB0E0EFEEF0E0982F92951B
:1003B000907F98831C9210828F5F8F30B9F7E8EDA1
:1003C000F0E080818260808380EA8093DB00DF91AF
:1003D000CF910895F894EFDE789408956C9A6D9A11
:1003E000809A819A829A73986B9AE1E9F0E080E1B1
:1003F0008083A0E9B0E08C9180688C9380818260DA
:1004000080838081816080838FEF8093960010923B
:100410009700109298000895882371F0809131011F
:1004200081110AC080913001811106C0899A759AA4
:1004300081E080932F0108958998759810922F017B
:100440000895882311F0749A089574980895882364
:1004500039F08A9A80912F01811108C0899A0895F4
:100460008A9880912F01811101C08998089588236D
:1004700039F0889A80912F01811108C0759A0895EA
:10048000889880912F01811101C075980895CF93AC
:10049000DF93FC012081318126303105D1F52381A4
:1004A00020FF09C024E12093980021E020932E0131
:1004B00010922D0111C021FF09C024E6209398005D
:1004C00010922E0121E020932D0106C01092980079
:1004D00010922E0110922D01EC01809131018111B9
:1004E00007C080913001811103C08B81887094DF37
:1004F0008B818470A6DF8B8184FF06C081E08093AE
:1005000031018093300111C01092310110923001FD
:100510000CC02F30310549F4FC018381982F917074
:1005200090933001827080933101DF91CF910895D3
:100530008A9B03C080E08BCF089581E088CF089527
:10054000889B03C080E093CF089581E090CF089509
:10055000FC01138280912E01882311F081E08383B6
:1005600080912D01882319F08381826083838A9B87
:1005700003C0838184608383889B03C083818860F8
:100580008383759B03C0838180618383749B03C0D5
:1005900083818062838380913101882339F0809147
:1005A0003001882319F08381806483830895ECDE11
:1005B00061E083E390E0CCD011DF64D086E091E08D
:1005C00035D1269A2E980895F894F1DF27E432E089
:1005D00044E050E06FE070E080E062DE789488955F
:1005E000FECF1F920F920FB60F9211240BB60F92EF
:1005F0002F933F934F935F936F937F938F939F932B
:10060000AF93BF93EF93FF93F89483E591E0A0DF5E
:1006100078944091600150E066E571E081E691E0F8
:10062000AED09093510180935001892B79F063E50E
:1006300071E081E0CFDE809352018BE0E3E5F1E0F1
:10064000AEE5B1E001900D928A95E1F780915201FB
:10065000882321F0279A1092520101C02798FF9118
:10066000EF91BF91AF919F918F917F916F915F912A
:100670004F913F912F910F900BBE0F900FBE0F9097
:100680001F901895E1E8F0E080818260808380818E
:10069000816080831092850010928400EFE6F0E084
:1006A0008081816080837894E0E8F0E080818068D8
:1006B000808380818F7B808308951F920F920FB675
:1006C0000F9211240BB60F922F933F934F935F938A
:1006D0006F937F938F939F93AF93BF93EF93FF930A
:1006E00080913101882311F023DF02C080E0AFDE6A
:1006F00080913001882311F023DF02C080E0B7DE53
:1007000094B180E2892784B9FF91EF91BF91AF91B5
:100710009F918F917F916F915F914F913F912F9119
:100720000F900BBE0F900FBE0F901F901895E0EC2E
:10073000F0E0908195FFFDCF8093C60081E00895A1
:10074000E0ECF0E080818823ECF78091C60008950A
:100750009093C5008093C40086E08093C200662316
:1007600041F0E1ECF0E080818061808380818860ED
:10077000808360EA73E087E993E00EC00895FB018F
:10078000DC0104C08D910190801921F4415050404A
:10079000C8F7881B990B08950F931F93CF93DF938E
:1007A000009731F46115710519F480E090E039C0CB
:1007B0008B01EC016EE070E081E090E067D0FC011D
:1007C000892B99F380E883830115110571F0138754
:1007D000028781E883838091690190916A01892B66
:1007E00021F4F0936A01E09369012097C9F0D18761
:1007F000C08783818260838380916B0190916C01BB
:10080000892B71F4F0936C01E0936B0180916D0181
:1008100090916E01892B21F4F0936E01E0936D01AC
:10082000CF01DF91CF911F910F9108950F931F93E7
:10083000CF93DF93E0916B01F0916C01238121FF55
:100840001BC08C01D0E0C0E0F80181918F01609164
:100850006B0170916C01DB011896ED91FC91199779
:10086000882331F00995892B79F3DFEFCFEFECCFB7
:100870008AE00995892B19F08FEF9FEF02C08D2F29
:100880009C2FDF91CF911F910F9108950F931F938C
:10089000CF93DF93869F8001879F100D969F100D49
:1008A0001124C8010DD0EC01009721F0A80160E0EF
:1008B00070E033D1CE01DF91CF911F910F91089558
:1008C000CF93DF938230910510F482E090E0E091C5
:1008D0007101F091720120E030E0C0E0D0E030978B
:1008E00011F14081518148175907C0F04817590745
:1008F00061F482819381209719F09B838A832BC0B6
:10090000909372018093710126C02115310519F071
:100910004217530718F49A01BE01DF01EF0102806C
:10092000F381E02DDCCF2115310509F1281B390BAE
:100930002430310590F412968D919C911397611596
:10094000710521F0FB019383828304C090937201AF
:1009500080937101FD01329644C0FD01E20FF31F47
:1009600081939193225031092D933C933AC0209169
:100970006F0130917001232B41F4209102013091DD
:1009800003013093700120936F0120910001309199
:1009900001012115310541F42DB73EB74091040105
:1009A00050910501241B350BE0916F01F09170010E
:1009B000E217F307A0F42E1B3F0B2817390778F036
:1009C000AC014E5F5F4F2417350748F04E0F5F1F95
:1009D0005093700140936F018193919302C0E0E0C6
:1009E000F0E0CF01DF91CF9108950F931F93CF9344
:1009F000DF93009709F48CC0FC01329713821282B6
:100A000000917101109172010115110581F420818D
:100A10003181820F931F20916F013091700128174F
:100A2000390779F5F0937001E0936F0171C0D80137
:100A300040E050E0AE17BF0750F412962D913C9164
:100A40001397AD012115310509F1D901F3CF9D01AE
:100A5000DA013383228360817181860F971F8217A9
:100A6000930769F4EC0128813981260F371F2E5F27
:100A70003F4F318320838A819B8193838283452BDF
:100A800029F4F0937201E093710142C01396FC9334
:100A9000EE931297ED01499159919E01240F351F54
:100AA000E217F30771F480819181840F951F0296FC
:100AB00011969C938E938281938113969C938E932F
:100AC0001297E0E0F0E0D80112968D919C91139777
:100AD000009719F0F8018C01F6CF8D919C91980147
:100AE0002E5F3F4F820F931F20916F013091700155
:100AF0002817390769F4309729F41092720110927F
:100B0000710102C0138212821093700100936F0171
:100B1000DF91CF911F910F910895DC0101C06D937A
:0C0B200041505040E0F70895F894FFCFDA
:100B2C000000730120000D0A46726F6E74206C6910
:100B3C006768747320696E697469616C697A65643D
:020B4C000000A7
:00000001FF
