:100000000C944A000C9469000C9469000C946900EB
:100010000C9469000C9469000C9469000C946900BC
:100020000C9469000C9469000C9469000C946900AC
:100030000C9436040C9469000C9469000C946900CB
:100040000C9469000C9469000C946B000C9469008A
:100050000C9445040C9469000C9469000C9469009C
:100060000C9469000C9469000C9469000C9469006C
:100070000C9469000C9469000C9469000C9469005C
:100080000C9469000C9469000C9469000C9469004C
:100090000C94690011241FBECFEFD0E1DEBFCDBFAD
:1000A00011E0A0E0B1E0ECE9F3E100E00BBF02C039
:1000B00007900D92A236B107D9F721E0A2E6B1E090
:1000C00001C01D92AE3AB207E1F70E9409030C94F9
:1000D000CC090C9400001F920F920FB60F921124BE
:1000E0000BB60F922F933F934F935F936F937F9332
:1000F0008F939F93AF93BF93CF93EF93FF93EDEEC7
:10010000F0E0C0818091EC00682F70E0807F8083F8
:10011000729562956F7067277F7067278091EE00F8
:100120008F7509F098952091F2008091F300E2E636
:10013000F1E022952695277090E0880F991F880F8F
:10014000991F880F991F822B918380838091EF00E4
:100150008F708283082E000C990B009759F0E5E60A
:10016000F1E08B599E4FAAEFB0E02C912193E81754
:10017000F907D9F71092EE0080E88093EF00FB01B9
:10018000EE0FFF1FEB57FE4F0190F081E02D82E64E
:1001900091E00995C093ED00FF91EF91CF91BF9150
:1001A000AF919F918F917F916F915F914F913F910F
:1001B0002F910F900BBE0F900FBE0F901F901895B0
:1001C000CF93DF93FB01208131812115384008F066
:1001D00098959281993008F098958F300CF0989509
:1001E0008295807F8093ED008091EF00807C21F0EC
:1001F0008091EE0086FF55C01092EE001092EF0045
:1002000082818F3F61F18081918196958795969546
:100210008795969587958093F30080818295880FC6
:10022000807E8093F2001092F1001092F000228103
:10023000222379F0DF01139680E090E0CAEFD0E04E
:100240002D91288301962281422F50E08417950733
:10025000B8F3EFEEF0E08081282B20831BC0808173
:100260009181969587959695879596958795809394
:10027000F30080818295880F807E8093F200109237
:10028000F10084E08093F000AFEEB0E09C918281B9
:10029000892B8C93EFEEF0E080818064808381E095
:1002A00001C080E0DF91CF9108958F300CF06CC0D9
:1002B000E82FEE0FFF0BEB57FE4F31832083982F73
:1002C0009295907F9093ED00232BD9F41092EE003D
:1002D0001092EF0021E030E0A90102C0440F551F49
:1002E0008A95E2F7CA01EEEDF0E020818095822345
:1002F0008083EFEDF0E0808190958923808380E01A
:1003000008959091EF00907C09F040C01092EE00AB
:10031000EFEEF0E010821092EC009B0136952795ED
:1003200036952795369527952093F3006295660FAD
:10033000607E6093F2009A01369527953695279551
:10034000369527952093F7004295440F407E4093C1
:10035000F6001092F5001092F40090E8908321E0EE
:1003600030E0A90102C0440F551F8A95E2F7CA0187
:10037000EEEDF0E02081822B8083EFEDF0E08081D4
:10038000892B808380E0089581E0089581E00895BD
:10039000CF93DF9386E08093E2008CE08093E300CC
:1003A0008AE58093E40080E0CDEED0E0AEEEB0E0F0
:1003B000EFEEF0E0982F9295907F98831C92108238
:1003C0008F5F8F30B9F7E8EDF0E080818260808345
:1003D00080EA8093DB00DF91CF91089584B187603C
:1003E00084B92398289A80E58CBD089528988EBDFD
:1003F0000DB407FEFDCF289A8EB5089580E00E94C7
:10040000F60108959093C5008093C40086E0809320
:10041000C20088E18093C10008959093CD0080933D
:10042000CC0086E08093CA0088E18093C9000895DB
:10043000E0ECF0E0908195FFFDCF8093C600089539
:10044000E8ECF0E0908195FFFDCF8093CE00089519
:10045000CF93DF93EC018881882331F021960E94AD
:10046000180289918111FBCFDF91CF910895CF932D
:10047000DF93EC018881882331F021960E942002CD
:1004800089918111FBCFDF91CF910895E0ECF0E0ED
:1004900080818823ECF78091C6000895E8ECF0E0B5
:1004A00080818823ECF78091CE0008958091C80068
:1004B000882344F4AEECB0E0E8ECF0E08C9180816D
:1004C0008823E4F30895EF92FF920F931F93CF9345
:1004D000DF937C01D42F6623D9F0062F10E0015062
:1004E00011091016110684F4C0E00E9446028D170F
:1004F00061F0F701EC0FF11D8083CF5F8C2F90E04E
:100500008017910794F301C0C0E081E08C0F01C017
:1005100080E0DF91CF911F910F91FF90EF900895B0
:10052000EF92FF920F931F93CF93DF937C01D42F11
:100530006623E9F0062F10E001501109101611068C
:1005400094F4C0E00E944E028D1771F08A3061F081
:10055000F701EC0FF11D8083CF5F8C2F90E08017A7
:10056000910784F301C0C0E081E08C0F01C080E0FE
:10057000DF91CF911F910F91FF90EF900895FC01B3
:100580008581833938F4739A5A9810926E011092CB
:100590006D010895823B48F080916E01811105C084
:1005A00073985A9A81E080936D0108952898660F98
:1005B00064606EBD0DB407FEFDCF8295880F880F75
:1005C000807C8EBD0DB407FEFDCF8EB58F7090E0A0
:1005D000982F88271EBC0DB407FEFDCF2EB5289A94
:1005E000822B0895FC018581813039F4739A109231
:1005F0006D015A9880936E010895811109C0809110
:100600006E01811105C073985A9A81E080936D0143
:100610000895CF93DF93CDB7DEB72F970FB6F89439
:10062000DEBF0FBECDBF8CE090E00E94020266E408
:1006300072E088E192E00E948A0586E091E09F9353
:100640008F930E94D40584B1876084B92398289A37
:1006500080ED8CBD0E94C80184E190E09A8389837B
:1006600016E01B832FEB32E04FEF57E061E070E0C4
:1006700081E00E9455018AB18E608AB96B9A8BB174
:10068000817F8BB97398E1E8F0E080818C60808392
:10069000EFE6F0E080818260808381E19AE79093C9
:1006A00089008093880028981EBD81E08093A30173
:1006B0001092840178949B810F900F90992339F0C8
:1006C000FE01349680E081938F5F8913FCCF68949C
:1006D000222423F880916F018823E1F310926F01A7
:1006E0008BB182258BB9F8942091780130917901F2
:1006F00040917A0150917B01809174019091750134
:10070000A0917601B09177018C879D87AE87BF87D6
:10071000409070015090710160907201709073016F
:10072000C0908201D09083011092780110927901DB
:1007300010927A0110927B0110927401109275014F
:10074000109276011092770110927001109271014F
:100750001092720110927301109283011092820123
:1007600078944601A12CB12CA4E6B0E00E945C056F
:10077000A50194010E943A05CA01B90121E032E0C5
:1007800040E050E00E943A05322E022F132F6C8574
:100790007D858E859F85A50194010E943A05C9013A
:1007A0008752984068E670E00E94260594E6969F7E
:1007B0007001979FF00C1124C301B201A5019401AF
:1007C0000E943A0528503240C901880F991F220F14
:1007D000331F220F331F220F331F820F931F69E431
:1007E00070E00E9426055B01772314F4A12CB12C44
:1007F000083CA1E01A0714F0599A01C059981C83CB
:100800003D82FE82EF82A88680916D018987DF920A
:10081000CF92A4E1B1E0BF93AF930E94D4051F93A0
:100820000F93AEE2B1E0BF93AF930E94D405FF9265
:10083000EF92ABE3B1E0BF93AF930E94D405BF92B8
:10084000AF92AEE4B1E0BF93AF930E94D405BE0176
:100850006F5F7F4F8EE00E94E0008BB182258BB9E5
:100860000FB6F894DEBF0FBECDBF34CF1F920F92EC
:100870000FB60F9211248F9381E080936F018F91B7
:100880000F900FBE0F901F9018951F920F920FB6EA
:100890000F9211240F931F932F933F934F935F93C6
:1008A0006F937F938F939F93AF93BF938091A30197
:1008B000813009F490C020F0823009F497C0B5C0AF
:1008C00081E08093A301289A82E08A95F1F7289825
:1008D00080918401813059F120F0823009F44DC0BB
:1008E000A4C02EB580917E0190917F01822B9093C0
:1008F0007F0180937E014091740150917501609158
:100900007601709177018A019B01080F191F211D43
:10091000311D00937401109375012093760130937B
:10092000770181E08093840186E08EBD7EC02EB584
:1009300080917C0190917D01822B90937D01809329
:100940007C01409170015091710160917201709130
:1009500073018A019B01080F191F211D311D00938E
:10096000700110937101209372013093730182E042
:100970008093840184E08EBD58C080918201909163
:100980008301019690938301809382012EB580911B
:10099000800190918101822B90938101809380014D
:1009A000409178015091790160917A0170917B01B9
:1009B0008A019B01080F191F211D311D0093780129
:1009C0001093790120937A0130937B011092840176
:1009D00086E08EBD2AC082E08093A30180918401CD
:1009E0008295880F880F807C8EBD1FC01092A30156
:1009F00080918401813059F018F0823079F014C070
:100A00008EB58F7010927E0180937F010DC08EB5E0
:100A10008F7010927C0180937D0106C08EB58F701F
:100A200010928001809381011EBCBF91AF919F9174
:100A30008F917F916F915F914F913F912F911F9176
:100A40000F910F900FBE0F901F90189597FB072ED8
:100A500016F4009407D077FD09D00E94670507FCC3
:100A600005D03EF4909581959F4F089570956195BE
:100A70007F4F0895A1E21A2EAA1BBB1BFD010DC0DA
:100A8000AA1FBB1FEE1FFF1FA217B307E407F5073E
:100A900020F0A21BB30BE40BF50B661F771F881F1A
:100AA000991F1A9469F760957095809590959B01B0
:100AB000AC01BD01CF0108950E947B05A59F900D5B
:100AC000B49F900DA49F800D911D11240895AA1B21
:100AD000BB1B51E107C0AA1FBB1FA617B70710F029
:100AE000A61BB70B881F991F5A95A9F7809590955B
:100AF000BC01CD010895A29FB001B39FC001A39F87
:100B0000700D811D1124911DB29F700D811D112446
:100B1000911D08950F931F93CF93DF93EC018B01E9
:100B2000892B29F4672B19F480E090E038C06EE03F
:100B300070E081E090E00E94E407FC01892BA1F3C2
:100B400080E883830115110571F01387028781E81E
:100B500083838091A4019091A501892B21F4F093C6
:100B6000A501E093A4012097C9F0D187C0878381B4
:100B7000826083838091A6019091A701892B71F4F3
:100B8000F093A701E093A6018091A8019091A9019B
:100B9000892B21F4F093A901E093A801CF01DF9103
:100BA000CF911F910F910895CF93DF93CDB7DEB70B
:100BB000AE014B5F5F4FFA0161917191AF0180917E
:100BC000A6019091A7010E94E805DF91CF910895B9
:100BD0002F923F924F925F926F927F928F929F924D
:100BE000AF92BF92CF92DF92EF92FF920F931F933B
:100BF000CF93DF93CDB7DEB72C970FB6F894DEBF57
:100C00000FBECDBF6C017B018A01FC0117821682E9
:100C1000838181FFBEC1CE0101964C01F601938113
:100C2000F70193FD859193FF81917F01882309F45A
:100C3000ACC1853239F493FD859193FF81917F0199
:100C4000853229F4B60190E00E943E09E7CF512C8D
:100C5000312C20E02032A0F48B3269F030F4803265
:100C600059F0833269F420612CC08D3239F0803321
:100C700039F4216026C02260246023C0286021C08E
:100C800027FD27C030ED380F3A3078F426FF06C034
:100C9000FAE05F9E300D1124532E13C08AE0389E77
:100CA000300D1124332E20620CC08E3221F426FD2B
:100CB0006CC1206406C08C3611F4206802C08836EE
:100CC00041F4F70193FD859193FF81917F0181119B
:100CD000C1CF982F9F7D9554933028F40C5F1F4F00
:100CE0009FE399830DC0833631F0833771F08335EC
:100CF00009F05BC022C0F801808189830E5F1F4F1D
:100D000044244394512C540115C03801F2E06F0E75
:100D1000711CF801A080B18026FF03C0652D70E032
:100D200002C06FEF7FEFC5012C870E9433092C01B1
:100D300083012C852F77222E17C03801F2E06F0E29
:100D4000711CF801A080B18026FF03C0652D70E002
:100D500002C06FEF7FEFC5012C870E9421092C0193
:100D60002C852068222E830123FC1BC0832D90E05C
:100D700048165906B0F4B60180E290E00E943E09A0
:100D80003A94F4CFF50127FC859127FE81915F010C
:100D9000B60190E00E943E0931103A94F1E04F1AFA
:100DA00051084114510471F7E6C0843611F08936B8
:100DB00039F5F80127FF07C0608171818281938135
:100DC0000C5F1F4F08C060817181072E000C880BDB
:100DD000990B0E5F1F4F2F76722E97FF09C09095CB
:100DE0008095709561957F4F8F4F9F4F2068722E31
:100DF0002AE030E0A4010E946E09A82EA81844C081
:100E0000853729F42F7EB22E2AE030E025C0F22F5C
:100E1000F97FBF2E8F36C1F018F4883579F0B5C050
:100E2000803719F0883721F0B0C02F2F2061B22E03
:100E3000B4FE0DC08B2D8460B82E09C024FF0AC0FB
:100E40009F2F9660B92E06C028E030E005C020E153
:100E500030E002C020E132E0F801B7FE07C0608157
:100E60007181828193810C5F1F4F06C06081718107
:100E700080E090E00E5F1F4FA4010E946E09A82E33
:100E8000A818FB2DFF777F2E76FE0BC0372D3E7FF7
:100E9000A51450F474FE0AC072FC08C0372D3E7EC3
:100EA00005C0BA2C372D03C0BA2C01C0B52C34FFB5
:100EB0000DC0FE01EA0DF11D8081803311F4397EF1
:100EC00009C032FF06C0B394B39404C0832F867860
:100ED00009F0B39433FD13C030FF06C0B31498F487
:100EE0003A0C532C5B1810C0B31470F4B60180E2B6
:100EF00090E03C870E943E09B3943C85F5CFB31443
:100F000018F43B1802C05A2C312C34FF12C0B60121
:100F100080E390E03C870E943E093C8532FF17C089
:100F200031FD03C088E790E002C088E590E0B6019B
:100F30000CC0832F867859F031FF02C08BE201C0CC
:100F400080E237FD8DE2B60190E00E943E09A514D3
:100F500038F4B60180E390E00E943E095A94F7CF3E
:100F6000AA94F401EA0DF11D8081B60190E00E947F
:100F70003E09A110F5CF332009F450CEB60180E22E
:100F800090E00E943E093A94F6CFF601868197815F
:100F900002C08FEF9FEF2C960FB6F894DEBF0FBE06
:100FA000CDBFDF91CF911F910F91FF90EF90DF9018
:100FB000CF90BF90AF909F908F907F906F905F90F9
:100FC0004F903F902F9008950F931F93CF93DF93EF
:100FD000869F8001879F100D969F100D1124C801D8
:100FE0000E940008EC01009729F0A80160E070E081
:100FF0000E942C09CE01DF91CF911F910F9108958E
:101000000F931F93CF93DF938230910510F482E00A
:1010100090E0E091AC01F091AD0120E030E0A0E083
:10102000B0E0309719F14081518102811381481756
:101030005907C8F08417950769F4109731F0129694
:101040000C93129713961C9327C00093AC01109336
:10105000AD0122C02115310519F04217530718F4CC
:101060009A01BD01EF01DF01F801DBCF2115310548
:10107000F9F0281B390B2430310580F48A819B81DB
:101080006115710521F0FB019383828304C0909365
:10109000AD018093AC01FE01329644C0FE01E20F27
:1010A000F31F8193919322503109398328833AC0E9
:1010B0002091AA013091AB01232B41F42091020130
:1010C000309103013093AB012093AA0120910001DC
:1010D000309101012115310541F42DB73EB7409102
:1010E000040150910501241B350BE091AA01F091F8
:1010F000AB01E217F307A0F42E1B3F0B28173907AB
:1011000078F0AC014E5F5F4F2417350748F04E0F63
:101110005F1F5093AB014093AA018193919302C04A
:10112000E0E0F0E0CF01DF91CF911F910F910895A2
:10113000CF93DF93009709F481C0FC0132971382AB
:101140001282A091AC01B091AD01109781F4208181
:101150003181820F931F2091AA013091AB01281792
:10116000390751F5F093AB01E093AA0167C0ED0197
:1011700020E030E0CE17DF0740F44A815B819E011A
:1011800041155105F1F0EA01F5CFD383C2834081C7
:101190005181840F951FC817D90759F48881998107
:1011A000840F951F0296918380838A819B8193830C
:1011B00082832115310529F4F093AD01E093AC0150
:1011C0003DC0E901FB83EA8349915991C40FD51FC2
:1011D000EC17FD0761F480819181840F951F0296C1
:1011E000E90199838883828193819B838A83E0E0EC
:1011F000F0E012968D919C911397009719F0FD01E4
:10120000DC01F7CF8D919C9111979D012E5F3F4F8F
:10121000820F931F2091AA013091AB012817390743
:1012200069F4309729F41092AD011092AC0102C01C
:1012300013821282B093AB01A093AA01DF91CF91E8
:101240000895FC010590615070400110D8F7809519
:1012500090958E0F9F1F0895DC0101C06D93415042
:101260005040E0F70895FC0161507040019001107A
:10127000D8F7809590958E0F9F1F08950F931F9319
:10128000CF93DF93182F092FEB018B8181FD03C0D2
:101290008FEF9FEF1EC082FF0FC02E813F818C8198
:1012A0009D812817390774F4E881F981CF010196EF
:1012B00099838883108306C0E885F985812F099575
:1012C000892B31F78E819F8101969F838E83812F99
:1012D000902FDF91CF911F910F910895FA01AA27C6
:1012E000283051F1203181F1E8946F936E7F6E5F69
:1012F0007F4F8F4F9F4FAF4FB1E03ED0B4E03CD017
:10130000670F781F891F9A1FA11D680F791F8A1FF9
:10131000911DA11D6A0F711D811D911DA11D20D060
:1013200009F468943F912AE0269F11243019305D1A
:101330003193DEF6CF010895462F4770405D41930B
:10134000B3E00FD0C9F7F6CF462F4F70405D4A3358
:1013500018F0495D31FD4052419302D0A9F7EACF20
:10136000B4E0A6959795879577956795BA95C9F74F
:1013700000976105710508959B01AC010A2E069442
:101380005795479537952795BA95C9F7620F731FFB
:0C139000841F951FA01D0895F894FFCF46
:10139C000000AE01200048656C6C6F20576F726CBA
:1013AC0064210A0041766572616765206F7665720B
:1013BC002025642073616D706C65733A0A00566F5A
:1013CC006C746167653A2025640A00437572726516
:1013DC006E74206D6F746F723A2025640A00437529
:1013EC007272656E7420736F6C61723A2025640A98
:0213FC000000EF
:00000001FF
