S00B00004750532E737265632F
S113000058C0000075C0000073C0000071C000003B
S11300106FC000006DC000006BC0000069C000002C
S113002067C0000065C0000063C0000061C000003C
S11300305FC000005DC000005BC0000059C000004C
S113004057C0000055C0000054C0000051C000005B
S11300504FC000004DC000004BC0000049C000006C
S113006047C0000045C0000043C0000041C000007C
S11300703FC000003DC000003BC0000039C000008C
S113008037C0000035C0000033C0000031C000009C
S11300902FC00000A903B00317041E04EF04EF04EB
S11300A0EF04EF04EF04EF04A204A804B904CA04A3
S11300B0DE0411241FBECFEFD0E1DEBFCDBF11E0BF
S11300C0A0E0B1E0E6E7F4E300E00BBF02C0079074
S11300D00D92A435B107D9F721E0A4E5B1E001C040
S11300E01D92A139B207E1F70E94B2140C94391A97
S11300F087CF1F920F920FB60F9211240BB60F9257
S11301002F933F934F935F936F937F938F939F931B
S1130110AF93BF93CF93EF93FF93EDEEF0E0C081E5
S11301208091EC00682F70E0807F808372956295E7
S11301306F7067277F7067278091EE008F7509F0D5
S113014098952091F2008091F300E4E5F1E090E0CD
S1130150880F991F880F991F880F991F229526953C
S11301602770822B918380838091EF008F7082832C
S113017090E0009759F0E7E5F1E0895A9E4FAAEF25
S1130180B0E02C912193E817F907D9F71092EE000B
S113019080E88093EF00FB01EE0FFF1FE759FE4F4D
S11301A00190F081E02D84E591E00995C093ED0084
S11301B0FF91EF91CF91BF91AF919F918F917F91DB
S11301C06F915F914F913F912F910F900BBE0F90C4
S11301D00FBE0F901F901895F8948FEF8EBD0DB43D
S11301E007FEFDCF78948EB5089582E38093600175
S11301F0F3DFF2DF8F3F39F0809160018111F9CF95
S113020080E090E0089581E090E00895289AE4CF9A
S11302100895CF93DF932898E8DFEC01892B11F43C
S1130220F5DF02C0C1E0D0E0CE01DF91CF910895A7
S11302300F931F93CF93DF93EC018B0184E18093A1
S11302406101CADF8F3F39F4909161019111F9CFB7
S113025080E090E031C08E3F69F5CE0103962FEF28
S11302602EBD0DB407FEFDCF3EB5FC01DC01139796
S11302703C932EBD0DB407FEFDCF3EB5DF011297B2
S11302803C932EBD0DB407FEFDCF3EB5DF011197A3
S11302903C932EBD0DB407FEFDCF3EB53083045014
S11302A01109049601151105D9F696DF95DF81E051
S11302B090E002C080E090E0DF91CF911F910F9118
S11302C008951F93CF93DF93EC01162F8EDF0097D1
S11302D009F438C0F8941EBD0DB407FEFDCF789420
S11302E01D3F71F19E013E5FF89488818EBD0DB46F
S11302F007FEFDCF7894F8942296FE013197808111
S11303008EBD0DB407FEFDCF78942C173D0761F721
S1130310F8948FEF8EBD0DB407FEFDCF7894F8945A
S11303208FEF8EBD0DB407FEFDCF789455DF8F712E
S113033031E020E0853009F030E0832F922F02C0B5
S113034081E090E0DF91CF911F910895CF92DF92E9
S1130350EF92FF92CF93C82F6A017B0188234CF45C
S113036040E050E0BA0187E3F1DF823008F04BC08F
S1130370CF774CDF4EDF892B09F444C0F8948C2FDF
S113038080648EBD0DB407FEFDCF7894F8948F2D54
S11303909927AA27BB278EBD0DB407FEFDCF7894FD
S11303A0F894C701AA27BB278EBD0DB407FEFDCF65
S11303B07894F894BB27AF2D9E2D8D2D8EBD0DB452
S11303C007FEFDCF7894F894CEBC0DB407FEFDCFA4
S11303D07894CC2321F0C83021F487E803C085E960
S11303E001C081E0F8948EBD0DB407FEFDCF789472
S11303F0CC3009F4F1DECAE0EFDE882324F4C150E6
S1130400D9F701C08FEFCF91FF90EF90DF90CF909D
S11304100895CF92DF92EF92FF920F931F93CF93A1
S1130420DF9300D000D0CDB7DEB7811191C08091A9
S1130430060181FF03C08091060195C085B1806CDF
S113044085B982E58CBD1AE0C7DE1150E9F740E0BA
S113045050E0BA0180E07ADF813009F080C088EC96
S1130460809361014AEA51E060E070E088E06EDF69
S1130470813009F03BC0CE0101966C017E0195E00C
S1130480E90EF11C8601A8DEF80181938F01EE15B7
S1130490FF05C9F78B81813009F061C08C818A3AEC
S11304A009F05DC080916101882341F040E050E093
S11304B060E070E489EA4ADF8111F4CF8091610140
S11304C0882309F44CC040E050E0BA018AE33EDFDF
S11304D0811145C081DEF60181936F01EE15FF05A0
S11304E0C9F7898186FD36C084E035C040E050E01C
S11304F0BA0189EA2BDF823018F001E011E002C072
S113050002E019EA90916101992339F040E050E04A
S1130510BA01812F1BDF8111F5CF809161018823FE
S1130520F1F040E052E060E070E080E10FDF811123
S113053016C000935F016ADE002339F08091060142
S11305408E7F8093060180E58CBD809106010BC0EF
S113055081E009C08CE080935F0158DEEFCF1092F8
S11305605F0154DEF2CF0F900F900F900F90DF9148
S1130570CF911F910F91FF90EF90DF90CF9008954E
S1130580811103C080910601089581E008950F93BD
S1130590CF93DF93EB0181113EC0002309F43DC0EA
S11305A08091060180FD3BC080915F0183FD09C0FD
S11305B0012E19E0220F331F441F551F1A95D1F73E
S11305C0102D013071F4BA01A90181E1BFDE81115E
S11305D01CC060E072E0CE012BDE892BB1F000E09C
S11305E014C0BA01A90182E1B1DE81110EC060E03C
S11305F072E0CE011DDE892B19F0DE5F0150B9F7E0
S113060040E050E0BA018CE0A1DE00DE81E001119F
S113061007C080E005C084E003C084E001C083E03B
S1130620DF91CF910F910895CF92DF92EF92FF92D5
S11306300F93CF93DF93EB0169017A0181114AC0D3
S1130640002309F449C08091060180FD47C08091D0
S1130650060182FD45C080915F0183FD09C00B2E18
S1130660B9E0CC0CDD1CEE1CFF1CBA95D1F7B02D03
S1130670013069F4B701A60188E168DE811124C064
S11306806EEFCE011EDE892BF9F000E01DC08670EE
S113069031F0402F50E060E070E087E957DEB701A9
S11306A0A60189E153DE81110FC06CEFCE0109DE92
S11306B0892B19F0DE5F0150C1F76DEF80E090E007
S11306C000DE892B09F401E0A1DD81E0011109C0FC
S11306D080E007C084E005C084E003C083E001C07B
S11306E082E0DF91CF910F91FF90EF90DF90CF9058
S11306F00895EF92FF920F931F93CF93DF93CDB79B
S1130700DEB760970FB6F894DEBF0FBECDBF811180
S113071080C1643071F4FA018081823008F47BC1B5
S1130720823011F084E07AC181E0FA01818380E0B3
S113073075C18091060180FD70C17A01062F10E019
S11307400F30110508F04BC1F801E65BFF4F0C9424
S1130750A3155FDD892B09F444C158DD10E056C1AF
S113076040E050E0BA0189E0F1DD81113CC160E173
S113077070E0CE0101965CDD892B09F436C18981D4
S113078082958695869583708130E9F48A8590E018
S11307909C012F5F3F4F898590E0982F8827820F17
S11307A0931FA0E0B0E0072E7AE0880F991FAA1FDC
S11307B0BB1F7A95D1F7702DF70180839183A283B3
S11307C0B38310E023C129852295269526952370AD
S11307D08885F4E08F9FC0011124820F911D9C0134
S11307E02F5F3F4F8F81837090E0982F8827990F58
S11307F0990F820F931FA0E0B0E03E813F702B85DC
S1130800221F2227221F320F2A852370220F230F33
S1130810275004C0880F991FAA1FBB1F2A95D2F71F
S1130820F70180839183A283B38310E0EFC080E05B
S113083092E0FA019183808310E0E8C010915F0197
S113084012FF28C040E050E0BA018DE87FDD81113D
S1130850CEC0C2DC60E170E0CE010196E9DC892BF8
S113086009F4C7C010E3B8DC1150E9F72B852295D1
S11308702F7080E190E0A0E0B0E004C0880F991FE1
S1130880AA1FBB1F2A95D2F7F70180839183A28305
S1130890B383BCC040E050E0BA0189E057DD811168
S11308A0AAC060E170E0CE010196C2DC892B09F494
S11308B0A4C011FF20C08C85881F8827881F90E062
S11308C001962B852F73820F911D820F911D2E850A
S11308D02295269526952370215002C0880F991FD2
S11308E02A95E2F7A0E0B0E0F70180839183A28328
S11308F0B38310E08BC08C85282F23708295869556
S1130900877090E0F8E02F9F800D911D11240196CF
S11309102B852C7730E035952795359527952F5FD6
S11309203F4F829FA001839F500D929F500D112431
S1130930CA01A0E0B0E0F70180839183A283B3836E
S113094010E064C080915F01FA01808310E05EC012
S113095040E050E0BA0189E0F9DC811150C060E167
S113096070E0C70165DC11E0892B09F44FC010E089
S11309704DC040E050E0BA018AE0E8DC811141C09A
S113098060E170E0C70154DC11E0892B09F43EC03A
S113099010E03CC040E050E0BA018AE3D7DC8111AA
S11309A032C08701F4E0EF0EF11C16DCF8018193EC
S11309B08F01EE15FF05C9F710E028C040E050E0B4
S11309C0BA018DE8C3DC811120C006DC60E470E06C
S11309D0C7012EDC11E0892BC9F010E017C014E028
S11309E015C011E013C011E011C011E00FC011E0F7
S11309F00DC011E00BC011E009C011E007C011E007
S1130A0005C011E003C011E001C011E0FFDB812F3C
S1130A1005C084E003C080E001C083E060960FB6A7
S1130A20F894DEBF0FBECDBFDF91CF911F910F9120
S1130A30FF90EF90089560E070E0CB010895CF93AC
S1130A40DF93EA0142305105E8F0DB01FC012D910E
S1130A503D91219331934250510942305105B8F7E9
S1130A60AE01425051099A0136952795F901319604
S1130A70EE0FFF1F8E0F9F1F6E0F7F1F220F331F5E
S1130A80421B530B4115510549F0DB01FC01480F92
S1130A90591F8D918193E417F507D9F7DF91CF9111
S1130AA008954115510539F0FC01840F951F619398
S1130AB0E817F907E1F708954F925F926F927F92DA
S1130AC0AF92BF92CF92DF92EF92FF920F931F9358
S1130AD0CF93DF93FC01C6A4D7A4E0A8F1A8C41661
S1130AE0D506E606F70609F44CC02A013B01EC01E1
S1130AF08481882391F15F01F2E3AF0EB11C01E020
S1130B00A7019601B50189818FDD81113CC01C824A
S1130B104E8D5F8D68A179A18AA19BA1ACA1BDA1D5
S1130B20840F951FA61FB71FC816D906EA06FB0631
S1130B30A0F41B81123088F08E8D9F8DA8A1B9A1DD
S1130B40C80ED91EEA1EFB1E01E0A7019601B501DD
S1130B5089816ADD1150113079F74114510461041F
S1130B60710499F001E0A3019201BE016E5C7F4F14
S1130B7089810DDD81110BC04EA65FA668AA79AAF2
S1130B8007C080E005C081E003C080E001C081E0CF
S1130B90DF91CF911F910F91FF90EF90DF90CF9055
S1130BA0BF90AF907F906F905F904F9008950F9398
S1130BB0CF93DF93EC019A01AB01BC016E5C7F4FD4
S1130BC001E08981E4DC811123C0FE01E05DFD4F79
S1130BD08081918185359A4AE9F4E85CF14080810D
S1130BE09181A281B381BB2786349144A445B10588
S1130BF099F0CC57DF4F488159816A817B817727EF
S1130C0081E0463451446445710539F480E005C0FF
S1130C1083E003C082E001C080E0DF91CF910F91B7
S1130C200895009779F0FC012081222369F0268140
S1130C3037812617370751F48181A2DC80FD08C073
S1130C4080E0089589E0089589E0089589E0089591
S1130C5083E008952F923F924F925F926F927F921A
S1130C608F929F92AF92BF92CF92DF92EF92FF92B8
S1130C700F931F93CF93DF93CDB7DEB72E970FB6A5
S1130C80F894DEBF0FBECDBFDC01ED91FC91E08096
S1130C90F12CB0E3EB1AF1082AE0E216F10440F477
S1130CA021812A3329F43296DC01ED93FC9303C0AD
S1130CB0E0906201F12CB2E0EB16F10408F0CAC135
S1130CC0F701EE0FFF1FED59FE4F208131813E8762
S1130CD02D87DB012D933C932115310509F4BCC10B
S1130CE0142FF9018081882359F0818149DC80FD2A
S1130CF007C0112309F4B2C182FFB2C18AE07EC2E7
S1130D00AD85BE851C921196EC928E2D82DB80FD02
S1130D10A9C1112311F082FDA7C140E050E0BA013E
S1130D208D859E8544DF8130B1F4ED85FE85EC50E0
S1130D30FE4F8081882309F499C1ED85FE85E85032
S1130D40FE4F4080518062807380B301A2018D8583
S1130D509E852DDF03C0412C512C3201833009F4D0
S1130D6087C1811187C1ED85FE8585AD96AD81155D
S1130D70924009F081C1ED85FE85E85BFF4F8080DC
S1130D809180A12CB12C81149104A104B10441F4EB
S1130D90ED85FE85EA5AFF4F80809180A280B38062
S1130DA0AD85BE855E968D929D92AD92BC929197D3
S1130DB0FD01EE5BFF4FA081ED85FE85A3838FEFE0
S1130DC08A0F823008F05AC117AD1283112309F437
S1130DD057C1812F90E09C01215031098223932334
S1130DE0892B09F04FC1ED5BFF4F20803180ED85E9
S1130DF0FE8531862086C1018F709927892B09F0E1
S1130E0043C1EB5BFF4FC080D180E12CF12CC114B6
S1130E10D104E104F10441F4ED85FE85EE5AFF4F5F
S1130E20C080D180E280F380ED85FE85E05CFF4FD9
S1130E30208131813A832983232B09F427C1B0E02F
S1130E40A50194010E94AC1569877A878B879C87DA
S1130E50A981BA81CD01A0E0B0E08D839E83AF83E8
S1130E60B887C101929582958F7089279F708927D1
S1130E702D813E814F815885280F391F411D511DF9
S1130E80DA01C90129853A854B855C85280F391F0C
S1130E904A1F5B1F29833A834B835C83C216D306A4
S1130EA0E406F50608F4F4C0C701B601621B730B2F
S1130EB0840B950B212F30E040E050E00E94811517
S1130EC0DA01C901211531054105510509F4E2C0D2
S1130ED0263F6FE036074105510508F087C111E050
S1130EE086C1ED85FE85E25AFF4F80819181A28102
S1130EF0B381ED85FE8586A397A3A0A7B1A7CC0CEB
S1130F00DD1CEE1CFF1CCC0CDD1CEE1CFF1CFFEFDB
S1130F10CF0EF1E0DF1EE11CF11C0B2EB9E0F694BC
S1130F20E794D794C794BA95D1F7B02D8C149D0447
S1130F30AE04BF0408F4B0C003C149845A846B846E
S1130F407C84480E591E6A1E7B1EAD85BE8596960E
S1130F504D925D926D927C929997123029F4CC0C4B
S1130F60DD1CEE1CFF1CD6C0A3E0B0E0A701960177
S1130F700E94AC15DC01CB01B695A7959795879592
S1130F80E1E0CE22DD24EE24FF24C80ED91EEA1EA1
S1130F90FB1EC0C0ED85FE85E05DFD4F8081918123
S1130FA085359A4AA1F5ED85FE8582A993A9A4A960
S1130FB0B5A982359245A146B14459F5ED85FE8522
S1130FC0EA5EFD4F80819181A281B381823792478D
S1130FD0A144B14601F5ED85FE85E25EFD4F8081B9
S1130FE09181A281B381ED85FE8582879387A48751
S1130FF0B587E65EFD4F80819181A281B381ED8545
S1131000FE8586879787A08BB18B13E005C013E01C
S113101003C013E001C013E0AD85BE851C9380912D
S1131020670190916801019690936801809367012C
S113103017969C938E931697FD0116A617A610AAD1
S113104011AA148256961D921D921D921C925997B4
S113105080E0D4C08BE0D2C08CE0D0C080E0CEC0B1
S113106080E0CCC083E0CAC08AE0C8C08DE0C6C0BE
S113107081E0C4C08DE0C2C08DE0C0C08DE0BEC0C0
S11310808DE0BCC08DE0BAC08DE0B8C08DE0B6C0C4
S11310908DE0B4C08DE0B2C08DE0B0C08DE0AEC0D4
S11310A08DE0ACC08DE0AAC069017A01B2E0CB0E3C
S11310B0D11CE11CF11CED85FE85C28ED38EE48E1D
S11310C0F58E89819A81AB81BC81840D951DA61D05
S11310D0B71D82A793A7A4A7B5A78D819E81AF81D1
S11310E0B885840D951DA61DB71D82A393A3A4A343
S11310F0B5A3232899F6F5CE8FEF9FEFDC01ED859C
S1131100FE8586879787A08BB18B128613861486FB
S1131110158682CFBFEFCB0EB1E0DB1EE11CF11CC4
S11311200B2EB9E0F694E794D794C794BA95D1F707
S1131130B02D8C149D04AE04BF0408F4B1CFDCCFF1
S11311408FEF9FEFDC01ED85FE8586879787A08B67
S1131150B18BDF0112861386148615861582EE592B
S1131160FF4F80819181A3019201280F391F411DF6
S1131170511DFD01228B338B448B558B01E0BD0146
S11311806E5C7F4F818103DA882309F403CF13E077
S113119043CF69017A01F2E0CF0ED11CE11CF11CAE
S11311A0AD85BE855A96CD92DD92ED92FC925D9707
S11311B089819A81AB81BC81840D951DA61DB71DC3
S11311C0ED85FE8582A793A7A4A7B5A78D819E81EF
S11311D0AF81B885840D951DA61DB71D82A393A369
S11311E0A4A3B5A3232809F45DCFA7CE12E0863FBC
S11311F09F4FA105B10508F057CFCBCF2E960FB660
S1131200F894DEBF0FBECDBFDF91CF911F910F9138
S1131210FF90EF90DF90CF90BF90AF909F908F9012
S11312207F906F905F904F903F902F900895EF9232
S1131230FF920F93CF93DF93EC0140E050E0BA01AB
S11312403BDC982F811152C08881833009F045C05E
S11312508D81882309F441C01EA61FA618AA19AAC5
S113126040E052E060E070E07E0182E3E80EF11CB1
S1131270C70117DC85E59AEAFE01E05DFD4F918325
S1131280808382E592E5A1E6B1E48AAB9BABACAB8B
S1131290BDAB82E792E7A1E4B1E67A9780839183BC
S11312A0A283B3838E859F85A889B9893496808368
S11312B09183A283B3838A859B85AC85BD8534964F
S11312C080839183A283B3832A893B894C895D8976
S11312D001E0B7018981A8D91D8240E050E060E0B7
S11312E0898107DA91E0811101C090E0892FDF91B3
S11312F0CF910F91FF90EF900895AF92BF92CF924C
S1131300DF92EF92FF921F93CF93DF93EC016A0178
S11313107B01423051056105710508F4A6C08A8D30
S11313209B8DAC8DBD8D481759076A077B0708F064
S1131330A1C08881823009F44AC0833009F468C0AE
S1131340813009F09CC05A01B694A794A40EB51E2E
S1131350C501892F992786954AA15BA16CA17DA11E
S1131360480F591F611D711DCE01A6DB81118BC071
S1131370F501F170EC0FFD1F12A98FEFA81AB80A3E
S1131380C501892F992786954AA15BA16CA17DA1EE
S1131390480F591F611D711DCE018EDB811177C06D
S11313A081E0B822CA0DDB1D8AA9612F70E0782B79
S11313B0C0FE09C0729562956F7067277F706727BA
S11313C080E090E06FC07F7080E090E06BC0452FBC
S11313D0562F672F77278AA19BA1ACA1BDA1480FE7
S11313E0591F6A1F7B1FCE0167DB811154C0CC0CCF
S11313F0DD1CEE1CFF1CE894C0F881E0D822EE242A
S1131400FF24CC0DDD1D6AA97BA980E090E04AC0D1
S11314108AA19BA1ACA1BDA1689416F876956795A5
S1131420579547951694D1F7480F591F6A1F7B1F8C
S1131430CE0142DB811133C0CC0CDD1CEE1CFF1C41
S1131440CC0CDD1CEE1CFF1C8CEFC82281E0D822E2
S1131450EE24FF24FE01EC0DFD1D82A993A9A4A98D
S1131460B5A9BC01CD019F701DC061E070E080E0B2
S113147090E018C061E070E080E090E013C06FEF8E
S11314807FEFCB010FC06FEF7FEFCB010BC06FEF8E
S11314907FEFCB0107C06FEF7FEFCB0103C06FEF8E
S11314A07FEFCB01DF91CF911F91FF90EF90DF9001
S11314B0CF90BF90AF9008954F925F926F927F92BA
S11314C0AF92BF92CF92DF92EF92FF920F931F934E
S11314D0CF93DF93EC016A017B012801390142308B
S11314E051056105710508F4D4C08A8D9B8DAC8DBE
S11314F0BD8D481759076A077B0708F0CCC088815F
S1131500823009F460C0833009F481C0813009F06D
S1131510B8C05A01B694A794A40EB51EC501892F6C
S1131520992786954AA15BA16CA17DA1480F591FFB
S1131530611D711DCE01C0DA182F8111A7C0C5012C
S11315409170C0FE22C0FE01E80FF91F82A9282F66
S11315502F7030E1439EC0011124822B82AB8FEFA8
S1131560A81AB80A81E08C83C501892F992786952A
S11315704AA15BA16CA17DA1480F591F611D711D7A
S1131580CE019ADA81117FC088C0FE01E80FF91FED
S113159042AA3FEFA31AB30A81E08C83C501892FC5
S11315A0992786954AA15BA16CA17DA1480F591F7B
S11315B0611D711DCE0180DA811167C079C0EC0F05
S11315C0FD1F42AA63C0452F562F672F77278AA194
S11315D09BA1ACA1BDA1480F591F6A1F7B1FCE015F
S11315E06BDA182F811152C0CC0CDD1CEE1CFF1CD1
S11315F0E894C0F881E0D822EE24FF2432E3C30E3D
S1131600D11CFE01EC0DFD1D518240823FC08AA118
S11316109BA1ACA1BDA1689416F8769567955795E2
S113162047951694D1F7480F591F6A1F7B1FCE01A7
S113163043DA182F81112AC0CC0CDD1CEE1CFF1CD0
S1131640CC0CDD1CEE1CFF1C8CEFC82281E0D822E0
S1131650EE24FF2432E3C30ED11CFE01EC0DFD1D6C
S113166080819181A281B38188279927AA27B07F9D
S1131670482A592A6A2A7B2A4082518262827382CA
S113168005C012E003C0182F01C0182F81E08C831D
S11316901CC012E01AC012E018C0F501F170689481
S11316A013F876946794579447941694D1F787CF98
S11316B0F501F170DE01AE0FBF1FD2969C91907FB1
S11316C0852D8F70492E482A7ACF812FDF91CF91B3
S11316D01F910F91FF90EF90DF90CF90BF90AF904C
S11316E07F906F905F904F9008952F923F924F920A
S11316F05F926F927F928F929F92AF92BF92CF929E
S1131700DF92EF92FF920F931F93CF93DF93EC013D
S11317102A013B014115510561057105B9F48A841B
S11317209B84AC84BD8481149104A104B10421F18F
S11317308A8D9B8DAC8DBD8D88169906AA06BB0635
S1131740F8F0812C912C540183941AC0D6DD6B01DE
S11317507C01623071058105910508F487C08A8D8A
S11317609B8DAC8DBD8DC816D906EA06FB0608F420
S113177082C05301420104C0812C912C54018394F2
S1131780750164016894222421F8312C00E010E0F2
S11317908FEFC81AD80AE80AF80A8A8D9B8DAC8D97
S11317A0BD8DC816D906EA06FB0658F022E082165B
S11317B09104A104B10408F463C0C22CD32CE02E1C
S11317C0F12EB701A601CE0198DD611571058105E1
S11317D0910599F06F3F2FEF72078207920709F482
S11317E054C0613071058105910509F453C0C814D2
S11317F0D904EA04FB0461F652C08C2C9D2CAE2C57
S1131800BF2C0FEF1FEF2FEF3FE0B701A601CE0172
S113181053DE811149C0411451046104710451F033
S11318200C2D1D2D2E2D3F2DB301A201CE0144DE22
S113183081113FC08A869B86AC86BD868E859F8536
S1131840A889B9898F3F2FEF9207A207B20749F001
S11318500197A109B1098E879F87A88BB98B81E075
S11318608D836C2D7D2D8E2D9F2D27C061E070E022
S113187080E090E022C06C2D7D2D8E2D9F2D1DC00B
S113188060E070E080E090E018C06FEF7FEF8FEFD2
S11318909FEF13C061E070E080E090E00EC060E074
S11318A070E080E090E009C06FEF7FEF8FEF9FEF73
S11318B004C06FEF7FEF8FEF9FEFDF91CF911F9108
S11318C00F91FF90EF90DF90CF90BF90AF909F90DB
S11318D08F907F906F905F904F903F902F900895DE
S11318E07F928F929F92AF92BF92CF92DF92EF92AC
S11318F0FF920F931F93CF93DF93EC016A017B0157
S1131900423051056105710508F44BC08A8D9B8DE9
S1131910AC8DBD8D481759076A077B0708F043C093
S11319207724739433C0B701A601CE01E6DC4B01E2
S11319305C01672B682B692BC1F181E08816910447
S1131940A104B104A1F12FEF82169206A206B206F9
S113195081F100E010E09801B701A601CE01ACDDF1
S1131960811128C08E859F85A889B9898F3F2FEF63
S11319709207A207B20741F00196A11DB11D8E87FF
S11319809F87A88BB98B7D82750164018A8D9B8D9D
S1131990AC8DBD8DC816D906EA06FB0620F280E0A0
S11319A009C082E007C082E005C080E003C082E095
S11319B001C081E0DF91CF911F910F91FF90EF90D3
S11319C0DF90CF90BF90AF909F908F907F900895BD
S11319D0CF92DF92EF92FF92FC019A01AB01225069
S11319E0310941095109C28CD38CE48CF58C82E015
S11319F0C81AD108E108F1082C153D054E055F050C
S1131A0068F4A281B0E00E94AC15C2A4D3A4E4A4FB
S1131A10F5A46C0D7D1D8E1D9F1D03C060E070E05C
S1131A20CB01FF90EF90DF90CF900895EF92FF925B
S1131A300F931F93CF93DF93EC018B017D836C8312
S1131A404E815F8168857985413051056105710555
S1131A5009F491C0E881F981828D938DA48DB58DAF
S1131A60481759076A077B0708F087C041155105D5
S1131A706105710551F58081833049F446A157A170
S1131A8060A571A54115510561057105F1F41A862A
S1131A901B861C861D86808591850817190708F00A
S1131AA06EC086A197A1A0A5B1A5980132952295F3
S1131AB02F7023273F702327820F931FA11DB11D71
S1131AC08E879F87A88BB98B42C0E28080E1E89E15
S1131AD0700111240E151F0510F1888199810DDC08
S1131AE0AB01BC014F3F8FEF58076807780709F433
S1131AF048C0423051056105710508F444C0E881CD
S1131B00F981828D938DA48DB58D481759076A0785
S1131B107B07D8F50E191F090E151F05F0F64A8725
S1131B205B876C877D878881998152DF9801329524
S1131B3022952F7023273F702327DC01CB01820FCE
S1131B40931FA11DB11D8E879F87A88BB98B0F7022
S1131B501127000F111F02951295107F1027007F87
S1131B6010270E5C1F4F88819981080F191F1B8B4A
S1131B700A8B80E00BC082E009C082E007C082E0EB
S1131B8005C081E003C082E001C082E0DF91CF9113
S1131B901F910F91FF90EF9008958F929F92AF92B3
S1131BA0BF92CF92DF92EF92FF920F931F93CF9346
S1131BB0DF93DC011496CD91DC911597219609F4FD
S1131BC003C11E968D909D90AD90BC905197811449
S1131BD09104A104B10409F4F9C07B018C016E01E4
S1131BE0BFE0CB22DD24C114D10409F0D1C0EFEF52
S1131BF08E1A9E0AAE0ABE0ADC011E968D929D9232
S1131C00AD92BC9251971A964D915D916D917C91D4
S1131C101D97411551056105710549F4ED91FC913C
S1131C2080859185C817D90708F0D2C0B1C0DC01FE
S1131C30ED91FC91228130E021503109CE01929541
S1131C4082958F7089279F70892728233923232B16
S1131C5009F09EC0CF0151DB4B015C01623071057C
S1131C608105910508F4B6C06F3F7F4F8F4F9F4F9A
S1131C7009F4B2C0D801ED91FC91828D938DA48DAD
S1131C80B58D88169906AA06BB0608F470C0EF281D
S1131C9009F4A4C0D8011A964D915D916D917C917F
S1131CA01D97CF0122DD4B015C0161157105810592
S1131CB0910509F495C0613071058105910509F418
S1131CC091C06F3F7F4F8F4F9F4F09F48DC040E00D
S1131CD050E0BA01D8018D919C910E945C0581115C
S1131CE085C0F8018081918140E052E060E070E0BD
S1131CF0C2960E945105D801ED90FC90B501A40153
S1131D00C70166DEF70166A777A780AB91ABF12C1C
S1131D10EE24E3941AC0E48240E050E0BA01D80112
S1131D208D919C910E945C05811162C0D801ED9156
S1131D30FC9186A597A5A0A9B1A90196A11DB11DE5
S1131D4086A797A7A0ABB1ABF394D801ED91FC9112
S1131D508281F81600F386A597A5A0A9B1A98F19C9
S1131D609109A109B10986A797A7A0ABB1ABF80166
S1131D7082869386A486B586B501A401808191816B
S1131D8027DED8011E966D937D938D939C93519776
S1131D90F801D583C483CC0CDD1CCC0CDD1CCC0C2D
S1131DA0DD1CCC0CDD1CCC0CDD1CF2E3CF0ED11CF5
S1131DB0D8018D919C911197C80ED91E5396DC922F
S1131DC0CE92529780E015C084E013C084E011C025
S1131DD084E00FC082E00DC081E00BC084E009C044
S1131DE087E007C082E005C081E003C081E001C054
S1131DF081E0DF91CF911F910F91FF90EF90DF90E1
S1131E00CF90BF90AF909F908F9008952F923F9264
S1131E104F925F926F927F928F929F92AF92BF92F6
S1131E20CF92DF92EF92FF920F931F93CF93DF93A2
S1131E30CDB7DEB727970FB6F894DEBF0FBECDBF80
S1131E407C018B01DB018C918F3211F08C3541F4D4
S1131E500F5F1F4FF70116821782108611860CC080
S1131E60D701ED91FC9186899789A08DB18DF701F9
S1131E7086839783A087B187D8018C91803240F400
S1131E8060E070E0C701D2DDF701138A128A67C1EE
S1131E900F2EFBE09F2EF02D812CB12CA12C6894E9
S1131EA0772473F8312C212C0F2EF5E0DF2EF02D42
S1131EB03B829C828D820F2EFEE26F2EF02DFF82DC
S1131EC0EE82C72CAE81BF815496ED90FC9055975D
S1131ED0492D582D60E270E0C7010E945105F801B8
S1131EE080818E3249F0D801B982AA824B2D5A2DB5
S1131EF0472C532C722D1FC0D7016C92F80181819D
S1131F008E3249F411966C9282818E3209F477C034
S1131F1023E030E002C022E030E08F3209F4DBC07D
S1131F208C3509F4D8C0813208F0F1C0D8C0D7018B
S1131F301B968C93EEC04F5F5F4F6D91613208F436
S1131F40E2C06F3209F4DBC06C3509F4D8C06E32DC
S1131F5009F4C9C0E981FA81E415F5050CF0D7C08C
S1131F6008C0770F770FC982FB81FA834C805D80AC
S1131F70E2CF66230CF4CBC0262F30E022323105A9
S1131F80F1F1E8E0F1E08191882309F4B2C090E036
S1131F9028173907C1F733C0726006C08FE9860F6E
S1131FA08A3110F47160605289819A818E0D9F1D6F
S1131FB0FC01608329813A812F5F3F4F3A83298353
S1131FC0BACFA981BA81AB2B09F4A1C0F7019081E2
S1131FD0953E09F4D082F8E04F16510411F4770FBE
S1131FE0770F972F9370913009F48061972F9C702D
S1131FF0943009F48860D7011B968C938AC086E0DC
S1132000AEC0EE80FF80F7014685578560897189EF
S1132010808191810E945C0581118BC0D701529609
S11320204D915C915397FA019081992309F48EC0E4
S1132030938593FD13C054966D917C915597DB0164
S11320409A01255F3F4F270104C0E217F30709F403
S113205069C0F1909D91F916C1F372016B2D7A2D2F
S1132060C7019BDD882379F2FF82EE8264C095FF6D
S113207010C0AE81BF8116961D921D921D921C92B6
S1132080199753961C921E92529792FF1BCF80E091
S113209066C092FD1CC085E062C0FA01838584FF9E
S11320A018C084899589A0E0B0E0DC0199278827CD
S11320B0428D538D60E070E0842B952BA62BB72BBB
S11320C0EE81FF8186839783A087B187FBCE84E06E
S11320D046C085E044C0020F131F80E228CF020FE0
S11320E0131F84E224CFF8E04F16510409F439CFCA
S11320F086CF8FEB860F8A3108F44ECF4FCF040F73
S1132100151F822D5ECF040F151F84E05ACF86E081
S113211026C06B2D7A2D8E819F8188DC882309F45B
S113212070CF09C05F824E82FB01938592FFB5CFC9
S113213016C0FF82EE82AE81BF815496ED91FC9170
S113214055979385843009F492CF09C0FF82EE82BB
S1132150D7015496ED91FC915597938588CF279696
S11321600FB6F894DEBF0FBECDBFDF91CF911F91A4
S11321700F91FF90EF90DF90CF90BF90AF909F9022
S11321808F907F906F905F904F903F902F90089525
S1132190EF92FF920F931F93CF938C0160E070E056
S11321A045DCC82F811146C0D8011E964D915D9122
S11321B06D917C9151978D919C910E945C05C82FE3
S11321C0811138C0D8015296ED91FC9153978081CA
S11321D0853E21F1882311F161E070E0C801DDDC66
S11321E0C82F882309F326C0F801E288F38840E267
S11321F050E060E070E0C7010E945105D801549698
S11322006D917C9155974BE050E0C7010E941F05EA
S1132210D801ED91FC9181E084830CC0F8014685DE
S1132220578560897189808191810E945C05C82FDE
S11322308823D1F28C2FCF911F910F91FF90EF90B3
S113224008958230D0F490E0FC01EE0FFF1FED59A9
S1132250FE4F0190F081E02D309709F01082611556
S1132260710511F0FB011082880F991FFC01ED59D3
S1132270FE4F7183608380E008958BE008954F9250
S11322805F926F927F928F929F92AF92BF92CF9202
S1132290DF92EF92FF920F931F93CF93DF93CDB70B
S11322A0DEB7A4970FB6F894DEBF0FBECDBF8C0186
S11322B07CA36BA3F42EDC011D921C92B42FBF717E
S11322C0EB2E4E71BE016F5F7F4FCE0183960E944D
S11322D02A069E01295E3F4F3E8B2D8B8111BCC087
S11322E06BA17CA1CE01019691DDCB88DC888111A4
S11322F0BAC0C114D10409F0C0C0BAC0843019F402
S1132300CE01019645DFEE2DE860EE2ECB88DC8809
S1132310882349F0CCC0F2FCB5C0D6011B968C9141
S1132320817109F0B1C0E3FE4CC00E941B05F601A7
S113233066877787808B918B1386148E158E168E05
S1132340178E84889588A12CB12CD40199278827CD
S1132350828C938CA12CB12C882A992AAA2ABB2A74
S1132360158A148A138E128EE981FA8181E084839E
S113237081149104A104B10421F146A457A460A8D6
S113238071A8B501A401CF01ABDA811190C0898194
S11323909A81F1E08F1A9108A108B108DC011A961C
S11323A08D929D92AD92BC921D97B301A2010E94A1
S11323B05C0505C0F1FE05C080FD78C002C0811136
S11323C076C08E2D8E7119F0BE2DB062EB2EE98190
S11323D0FA8186A597A5A0A9B1A9F801828F938F48
S11323E0A48FB58FD78EC68ED8011496EC92F601C1
S11323F084899589A0E0B0E0DC0199278827428D83
S1132400538D60E070E0842B952BA62BB72BF8013D
S113241086879787A08BB18BF601848D958DA68DC9
S1132420B78DF80182879387A487B587D801168270
S1132430178210861186168A178A108E118EE981EA
S1132440FA811196FC93EE938681978113969C935F
S11324508E93129780E02BC0CB88DC889F2D9C71D3
S113246009F04CCF13C09F2D9C7109F047CF0EC0CB
S11324708F2D8C7171F486E009C08F2D8C7109F059
S11324804ACF0EC088E09BCF87E099CF81110FC05F
S1132490ABCFBE2DB860EB2ECB88DC8886E0F6CFC0
S11324A0F601838584FF86CF84E001C087E0A4968B
S11324B00FB6F894DEBF0FBECDBFDF91CF911F9151
S11324C00F91FF90EF90DF90CF90BF90AF909F90CF
S11324D08F907F906F905F904F9008952F923F92CE
S11324E04F925F926F927F928F929F92AF92BF9220
S11324F0CF92DF92EF92FF920F931F93CF93DF93CC
S1132500EC014B016A015901F901118210826A81BF
S11325107B81888199810E941106811177C18C8108
S113252088230CF470C181FF70C18A859B85AC85BA
S1132530BD85AC01BD014C0D5D1D611D711D4817AC
S113254059076A077B0708F448C1C114D10409F488
S113255044C14E815F8168857985DB01CA01917030
S1132560AA27BB27892B8A2B8B2B09F0EEC0E88185
S1132570F98112811150DB01CA01072E79E0B69569
S1132580A795979587957A95D1F7702D1823E1F53E
S1132590452B462B472B99F46E857F85888999892D
S11325A06115710581059105B1F440E050E0BA016F
S11325B0CF019BD86E877F87888B998B06C04A8909
S11325C05B896C897D89CF0190D86115710581057E
S11325D0910509F402C1613071058105910529F461
S11325E08C8180688C8382E011C16F3FFFEF7F078D
S11325F08F079F0729F48C8180688C8381E006C152
S11326006A8B7B8B8C8B9D8BE881F98146A557A5C2
S113261060A971A98E899F89A88DB98D481759071A
S11326206A077B0769F440E050E0BA01CF010E94D9
S11326305C05882329F08C8180688C8381E0E6C066
S1132640288039804A895B896C897D89C101C0D918
S1132650611571058105910529F48C8180688C834D
S113266082E0D4C02B013C01410E511C611C711C41
S11326707601EF2CFF24E694E114F10409F441C03F
S1132680F1014281242F30E0C701810F911D2817E9
S1132690390718F47901E11AF1080E2DA30192010A
S11326A0B401F10181810E941403882329F08C81F3
S11326B080688C8381E0AAC0E881F98186A597A50A
S11326C0A0A9B1A984199509A609B709A70160E0D1
S11326D070E084179507A607B70778F4982F882722
S11326E0990FB401680F791F40E052E0CF01C29600
S11326F00E941F05E881F9811482FE2CEE24FF0C50
S113270053C04E815F81688579858A859B85AC85B8
S1132710BD85481759076A077B0798F040E050E0E9
S1132720BA01C1010E945C05882329F08C8180686C
S11327308C8381E06BC0E881F98146A657A660AA24
S113274071AA4E8A5F8A688E798E2E813F8131709C
S113275080E092E0821B930B76018C159D0508F4B2
S11327607C014E895F89688D798D888199810E9469
S11327705C05882329F08C8180688C8381E046C0C5
S11327808E819F81A885B9859170AA27BB27C2969F
S113279028813981A701B401820F931F0E941F056C
S11327A0E881F98121E024838E0C9F1C8E819F8116
S11327B0A885B9858E0D9F1DA11DB11D8E839F8394
S11327C0A887B987F501808191818E0D9F1D918322
S11327D08083CE18DF0809F0BCCE8E819F81A88546
S11327E0B9854A855B856C857D85481759076A07D5
S11327F07B0720F48A879B87AC87BD878C818062A6
S11328008C8380E003C082E001C087E0DF91CF9138
S11328101F910F91FF90EF90DF90CF90BF90AF90FA
S11328209F908F907F906F905F904F903F902F90EC
S113283008950F931F93CF93DF93EC016A817B81FB
S1132840888199810E941106811137C09C8195FF6E
S113285034C04A8D5B8D6C8D7D8D888199810E94F9
S11328605C0581112AC00E8D1F8DF801838580625D
S113287083878A859B85AC85BD85848F958FA68F3C
S1132880B78F8E859F85938F828F8E859F85A8892C
S1132890B989B58BA48B0E941B05F801668B778BD5
S11328A0808F918F8C818F7D8C83E881F98181E089
S11328B08483888199810E941709DF91CF911F91A8
S11328C00F910895CF93DF93EC01B3DF811102C020
S11328D019821882DF91CF91089587EE84B985B16A
S11328E0806E85B91AB810BA1DB8739A84B187601E
S11328F084B98CB581658CBDECE7F0E0808180669D
S11329008083EAE7F0E08081826E8083EBE7F0E089
S11329108081808361E087E690E0D7C00895BC01A0
S113292080E08FDC811105C00E940902877019F4D0
S1132930089582E0089582E008952D982FEB84EDA8
S113294091E0215080409040E1F700C000002D9AB2
S11329502FEB84ED91E0215080409040E1F700C0DE
S113296000000895CF93DF93CDB7DEB7C955D240A9
S11329700FB6F894DEBF0FBECDBFAFDF2E98CE01E9
S11329800196CDDF882311F0D8DFFECF4AE06DE356
S113299071E0CE018D5C9D4F72DC882311F0CDDF98
S11329A0FECF2FEF84E39CE0215080409040E1F77C
S11329B000C000000F2EF9E74F2E512CF02D0F2EE2
S11329C0F7E46F2EF1E07F2EF02D8E010B5A1D4F90
S11329D00F2EF3E09F2EF02DA12C6894BB24B2F8A7
S11329E0C12C0F2EF5E0DF2EF02DE12C2F98F201F3
S11329F0F0801F92FF927F926F921F930F9322D1C8
S1132A000F900F900F900F900F900F90F9E0FF151B
S1132A1030F423E62F1530F44D2D5E2D05C0492DDD
S1132A205A2D02C04B2D5C2D9E012D5A3D4FB801ED
S1132A30CE018D5C9D4F52DD882311F07EDFFECFE9
S1132A402F9A8FE798E3E1E081509040E040E1F76E
S1132A5000C000006399CACFCE018D5C9D4F32DF68
S1132A60882311F06ADFFECF60E070E080E0E9DBEC
S1132A708CE491E09F938F93D2D00F900F902E9877
S1132A80FFEF23EC89E0F15020408040E1F700C0E3
S1132A9000002E9A9FEFE3ECF9E09150E040F04003
S1132AA0E1F700C00000EBCFE0ECF0E0908195FF8F
S1132AB0FDCF8093C60081E00895E0ECF0E08081D2
S1132AC08823ECF78091C60008959093C500809305
S1132AD0C40086E08093C200662341F0E1ECF0E09C
S1132AE0808180618083808188608083E1ECF0E074
S1132AF08081806880836DE575E184E595E145C05A
S1132B000895A1E21A2EAA1BBB1BFD010DC0AA1F2A
S1132B10BB1FEE1FFF1FA217B307E407F50720F042
S1132B20A21BB30BE40BF50B661F771F881F991FBD
S1132B301A9469F760957095809590959B01AC0106
S1132B40BD01CF010895EE0FFF1F0024001C0BBE32
S1132B500790F691E02D099409D0A59F900DB49F9C
S1132B60900DA49F800D911D11240895A29FB00182
S1132B70B39FC001A39F700D811D1124911DB29FAD
S1132B80700D811D1124911D08950F931F93CF93F0
S1132B90DF93009731F46115710519F480E090E03A
S1132BA039C08B01EC016EE070E081E090E067D207
S1132BB0FC01892B99F380E883830115110571F0D9
S1132BC01387028781E8838380918701909188012C
S1132BD0892B21F4F0938801E09387012097C9F0B1
S1132BE0D187C0878381826083838091890190919A
S1132BF08A01892B71F4F0938A01E0938901809111
S1132C008B0190918C01892B21F4F0938C01E0933A
S1132C108B01CF01DF91CF911F910F910895CF9335
S1132C20DF93CDB7DEB7AE014B5F5F4FFA01619121
S1132C307191AF018091890190918A0132D0DF9125
S1132C40CF9108950F931F93CF93DF93CDB7DEB742
S1132C502E970FB6F894DEBF0FBECDBF0D891E8927
S1132C6086E08C831A8309838FEF9FE79E838D838D
S1132C70AE01475E5F4F6F89788DCE01019611D00A
S1132C802F813885F801E20FF31F10822E960FB6BC
S1132C90F894DEBF0FBECDBFDF91CF911F910F918E
S1132CA008952F923F924F925F926F927F928F92EC
S1132CB09F92AF92BF92CF92DF92EF92FF920F93C7
S1132CC01F93CF93DF93CDB7DEB72C970FB6F8944D
S1132CD0DEBF0FBECDBF7C016B018A01FC011782F0
S1132CE01682838181FFB0C1CE0101964C01F701A8
S1132CF09381F60193FD859193FF81916F01882360
S1132D0009F49EC1853239F493FD859193FF819135
S1132D106F01853221F4B70190E015D3E8CF512C2F
S1132D20312C20E02032A0F48B3269F030F4803270
S1132D3059F0833269F420612CC08D3239F080332C
S1132D4039F4216026C02260246023C0286021C099
S1132D5027FD27C030ED380F3A3078F426FF06C03F
S1132D60FAE05F9E300D1124532E13C08AE0389E82
S1132D70300D1124332E20620CC08E3221F426FD36
S1132D805FC1206406C08C3611F4206802C0883606
S1132D9041F4F60193FD859193FF81916F018111B7
S1132DA0C1CF982F9F7D9554933028F40C5F1F4F0B
S1132DB0FFE3F9830DC0833631F0833771F0833537
S1132DC009F057C021C0F801808189830E5F1F4F2D
S1132DD044244394512C540114C03801F2E06F0E82
S1132DE0711CF801A080B18026FF03C0652D70E03E
S1132DF002C06FEF7FEFC5012C879AD22C018301AB
S1132E002C852F77222E16C03801F2E06F0E711C2C
S1132E10F801A080B18026FF03C0652D70E002C0D8
S1132E206FEF7FEFC5012C8771D22C012C852068B0
S1132E30222E830123FC19C0832D90E048165906E5
S1132E40A0F4B70180E290E07ED23A94F5CFF50188
S1132E5027FC859127FE81915F01B70190E073D231
S1132E6031103A94F1E04F1A51084114510479F7A2
S1132E70DEC0843611F0893631F5F80127FF07C02A
S1132E8060817181828193810C5F1F4F08C06081D2
S1132E907181072E000C880B990B0E5F1F4F2F7644
S1132EA0722E97FF09C090958095709561957F4F1C
S1132EB08F4F9F4F2068722E2AE030E0A4017BD20E
S1132EC0A82EA81843C0853729F42F7EB22E2AE0F5
S1132ED030E025C0F22FF97FBF2E8F36C1F018F4F1
S1132EE0883579F0ADC0803719F0883721F0A8C053
S1132EF02F2F2061B22EB4FE0DC08B2D8460B82E0E
S1132F0009C024FF0AC09F2F9660B92E06C028E08E
S1132F1030E005C020E130E002C020E132E0F801F9
S1132F20B7FE07C060817181828193810C5F1F4F5E
S1132F3006C06081718180E090E00E5F1F4FA401A4
S1132F403AD2A82EA818FB2DFF777F2E76FE0BC051
S1132F50372D3E7FA51450F474FE0AC072FC08C0DD
S1132F60372D3E7E05C0BA2C372D03C0BA2C01C0C4
S1132F70B52C34FF0DC0FE01EA0DF11D80818033B4
S1132F8011F4397E09C032FF06C0B394B39404C06F
S1132F90832F867809F0B39433FD12C030FF06C046
S1132FA05A2CB31418F4530C5B18B32CB31460F4F8
S1132FB0B70180E290E03C87C6D1B3943C85F6CF5C
S1132FC0B31410F43B1801C0312C34FF11C0B70105
S1132FD080E390E03C87B7D13C8532FF16C031FDD9
S1132FE003C088E790E002C088E590E0B7010CC018
S1132FF0832F867851F031FF02C08BE201C080E25A
S113300037FD8DE2B70190E09ED1A51430F4B701ED
S113301080E390E098D15A94F8CFAA94F401EA0D91
S1133020F11D8081B70190E08ED1A110F6CF33203D
S113303009F45DCEB70180E290E085D13A94F7CFF0
S1133040F7018681978102C08FEF9FEF2C960FB610
S1133050F894DEBF0FBECDBFDF91CF911F910F91CA
S1133060FF90EF90DF90CF90BF90AF909F908F90A4
S11330707F906F905F904F903F902F9008950F93A3
S11330801F93CF93DF93869F8001879F100D969F98
S1133090100D1124C8010DD0EC01009721F0A801F6
S11330A060E070E03ED1CE01DF91CF911F910F918E
S11330B00895CF93DF938230910510F482E090E07D
S11330C0E0918F01F091900120E030E0C0E0D0E089
S11330D0309711F14081518148175907C0F04817C2
S11330E0590761F482819381209719F09B838A8325
S11330F02BC09093900180938F0126C02115310538
S113310019F04217530718F49A01BE01DF01EF01C9
S11331100280F381E02DDCCF2115310509F1281B54
S1133120390B2430310590F412968D919C911397AC
S11331306115710521F0FB019383828304C0909390
S1133140900180938F01FD01329644C0FD01E20F8E
S1133150F31F81939193225031092D933C933AC0EC
S113316020918D0130918E01232B41F42091020195
S11331703091030130938E0120938D012091000141
S1133180309101012115310541F42DB73EB740912D
S1133190040150910501241B350BE0918D01F09140
S11331A08E01E217F307A0F42E1B3F0B28173907F3
S11331B078F0AC014E5F5F4F2417350748F04E0F8F
S11331C05F1F50938E0140938D018193919302C0B0
S11331D0E0E0F0E0CF01DF91CF9108950F931F93CA
S11331E0CF93DF93009709F48CC0FC0132971382CC
S11331F0128200918F01109190010115110581F443
S113320020813181820F931F20918D0130918E0195
S11332102817390779F5F0938E01E0938D0171C079
S1133220D80140E050E0AE17BF0750F412962D913C
S11332303C911397AD012115310509F1D901F3CF63
S11332409D01DA013383228360817181860F971F88
S11332508217930769F4EC0128813981260F371FFF
S11332602E5F3F4F318320838A819B8193838283A6
S1133270452B29F4F0939001E0938F0142C01396FB
S1133280FC93EE931297ED01499159919E01240FFD
S1133290351FE217F30771F480819181840F951F24
S11332A0029611969C938E938281938113969C939C
S11332B08E931297E0E0F0E0D80112968D919C91E4
S11332C01397009719F0F8018C01F6CF8D919C911A
S11332D098012E5F3F4F820F931F20918D013091F3
S11332E08E012817390769F4309729F41092900158
S11332F010928F0102C01382128210938E010093E8
S11333008D01DF91CF911F910F910895FC010590DC
S1133310615070400110D8F7809590958E0F9F1FD3
S11333200895DC0101C06D9341505040E0F70895C9
S1133330FC016150704001900110D8F78095909580
S11333408E0F9F1F08950F931F93CF93DF93FB015D
S1133350238121FD03C08FEF9FEF28C022FF16C0F9
S113336046815781248135814217530744F4A08153
S1133370B1819D012F5F3F4F318320838C93268140
S113338037812F5F3F4F3783268310C0EB01092F0E
S1133390182F0084F185E02D0995892BE1F68E81A3
S11333A09F8101969F838E83812F902FDF91CF91F0
S11333B01F910F910895FA01AA27283051F1203165
S11333C081F1E8946F936E7F6E5F7F4F8F4F9F4FB5
S11333D0AF4FB1E03ED0B4E03CD0670F781F891FF7
S11333E09A1FA11D680F791F8A1F911DA11D6A0FC5
S11333F0711D811D911DA11D20D009F468943F9178
S11334002AE0269F11243019305D3193DEF6CF0176
S11334100895462F4770405D4193B3E00FD0C9F73C
S1133420F6CF462F4F70405D4A3318F0495D31FDA9
S11334304052419302D0A9F7EACFB4E0A6959795FC
S1133440879577956795BA95C9F7009761057105D2
S113345008959B01AC010A2E06945795479537951C
S11334602795BA95C9F7620F731F841F951FA01D76
S10934700895F894FFCF5B
S113347600009101200001222A2B2C3A3C3D3E3FBC
S11334865B5D7C7F004E4F204E414D452020202021
S11334964641543332202020004E4F204E414D45A4
S11334A6202020204641542020202020002F646123
S11334B674612E7478740025640D0A000D0A446F35
S10734C66E6521000A
S9030000FC
