S00D000052617350492E7372656358
S113000049C0000064C0000062C0000060C000007D
S11300105EC000005CC000005AC0000058C0000070
S113002056C0000054C0000052C0000050C0000080
S11300304EC000004CC000004AC0000048C0000090
S113004046C0000044C0000043C0000040C000009F
S11300503EC000003CC000003AC0000038C00000B0
S113006036C0000034C0000032C0000030C00000C0
S11300702EC000002CC000002AC0000028C00000D0
S113008026C0000024C0000022C0000020C00000E0
S11300901EC0000011241FBECFEFD0E1DEBFCDBFD4
S11300A011E0A0E0B1E0ECE1FCE000E00BBF02C035
S11300B007900D92A038B107D9F721E0A0E8B1E08C
S11300C001C01D92A33BB207E1F7C6D0A5C598CFE6
S11300D01F920F920FB60F9211240BB60F922F930B
S11300E03F934F935F936F937F938F939F93AF93BC
S11300F0BF93CF93EF93FF93EDEEF0E0C081809137
S1130100EC00682F70E0807F8083729562956F7039
S113011067277F7067278091EE008F7509F09895A7
S11301202091F2008091F300E0E8F1E090E0880F84
S1130130991F880F991F880F991F2295269527705C
S1130140822B918380838091EF008F70828390E073
S1130150009759F0E3E8F1E08D579E4FAAEFB0E025
S11301602C912193E817F907D9F71092EE0080E853
S11301708093EF00FB01EE0FFF1FE557FE4F019048
S1130180F081E02D80E891E00995C093ED00FF91A6
S1130190EF91CF91BF91AF919F918F917F916F918B
S11301A05F914F913F912F910F900BBE0F900FBE17
S11301B00F901F90189561E083E390E0D1D0B0D008
S11301C086E091E09F938F932CD1269A78940F9098
S11301D00F900895CF92DF92EF92FF920F931F93A7
S11301E0CF93DF93EC01EA80F12C8BE7A0D08881D8
S11301F09ED001E010E08B3711F000E010E06801C0
S113020081E095D08A8193D0813019F48FEFC81A98
S1130210D80A81E08CD0E114F104A1F08E010D5FC5
S11302201F4FC0E0D0E0F80181918F0180D0813070
S113023019F4FFEFCF1ADF0A81E079D02196EC168A
S1130240FD0689F78C2DDF91CF911F910F91FF90BF
S1130250EF90DF90CF900895CF93DF93CDB7DEB7C3
S11302602B970FB6F894DEBF0FBECDBF249A2C9AFD
S1130270A2DF85E090E09A83898388E08B838FE610
S11302808C838EED8D8381E28E838CE28F8387E372
S1130290888782E489878DE48A8788E58B870F2E97
S11302A0F7E5CF2EF1E0DF2EF02D0F2EFCE4EF2E3C
S11302B0F1E0FF2EF02D0F2EFCE1AF2EF1E0BF2E6A
S11302C0F02D0AE02FEF80E792E02150804090402B
S11302D0E1F700C00000CE0101967CDF182F8A30C0
S11302E079F4BF92AF929DD01F920F93FF92EF9239
S11302F098D00F900F900F900F900F900F900EC00A
S1130300DF92CF928ED01F921F93FF92EF9289D0EB
S11303100F900F900F900F900F900F908895D2CF61
S113032084B1876084B981E58CBD289A08952898A2
S11303308EBD0DB407FEFDCF289A8EB50895E0EC6E
S1130340F0E0908195FFFDCF8093C60081E0089591
S1130350E0ECF0E080818823ECF78091C6000895FA
S11303609093C5008093C40086E08093C200662306
S113037041F0E1ECF0E080818061808380818860DD
S1130380808368EA71E08FE991E001C008950F93DA
S11303901F93CF93DF93009731F46115710519F41E
S11303A080E090E039C08B01EC016EE070E081E008
S11303B090E038D2FC01892B99F380E883830115FE
S11303C0110571F01387028781E883838091A90165
S11303D09091AA01892B21F4F093AA01E093A90139
S11303E02097C9F0D187C0878381826083838091FD
S11303F0AB019091AC01892B71F4F093AC01E093C3
S1130400AB018091AD019091AE01892B21F4F09361
S1130410AE01E093AD01CF01DF91CF911F910F9118
S11304200895CF93DF93CDB7DEB7AE014B5F5F4F37
S1130430FA0161917191AF018091AB019091AC018E
S113044003D0DF91CF9108952F923F924F925F9204
S11304506F927F928F929F92AF92BF92CF92DF92D0
S1130460EF92FF920F931F93CF93DF93CDB7DEB735
S11304702C970FB6F894DEBF0FBECDBF7C016B0185
S11304808A01FC0117821682838181FFB0C1CE01EB
S113049001964C01F7019381F60193FD859193FF39
S11304A081916F01882309F49EC1853239F493FD4B
S11304B0859193FF81916F01853221F4B70190E01A
S11304C015D3E8CF512C312C20E02032A0F48B320C
S11304D069F030F4803259F0833269F420612CC021
S11304E08D3239F0803339F4216026C022602460D3
S11304F023C0286021C027FD27C030ED380F3A30D3
S113050078F426FF06C0FAE05F9E300D1124532EC6
S113051013C08AE0389E300D1124332E20620CC0A3
S11305208E3221F426FD5FC1206406C08C3611F49E
S1130530206802C0883641F4F60193FD859193FF4B
S113054081916F018111C1CF982F9F7D9554933074
S113055028F40C5F1F4FFFE3F9830DC0833631F09D
S1130560833771F0833509F057C021C0F8018081C9
S113057089830E5F1F4F44244394512C540114C0AB
S11305803801F2E06F0E711CF801A080B18026FFE3
S113059003C0652D70E002C06FEF7FEFC5012C87AB
S11305A09AD22C0183012C852F77222E16C0380174
S11305B0F2E06F0E711CF801A080B18026FF03C029
S11305C0652D70E002C06FEF7FEFC5012C8771D2FB
S11305D02C012C852068222E830123FC19C0832D35
S11305E090E048165906A0F4B70180E290E07ED26C
S11305F03A94F5CFF50127FC859127FE81915F019F
S1130600B70190E073D231103A94F1E04F1A5108D7
S11306104114510479F7DEC0843611F0893631F57E
S1130620F80127FF07C060817181828193810C5F8B
S11306301F4F08C060817181072E000C880B990B35
S11306400E5F1F4F2F76722E97FF09C090958095ED
S1130650709561957F4F8F4F9F4F2068722E2AE0CF
S113066030E0A4017BD2A82EA81843C0853729F412
S11306702F7EB22E2AE030E025C0F22FF97FBF2E64
S11306808F36C1F018F4883579F0ADC0803719F091
S1130690883721F0A8C02F2F2061B22EB4FE0DC0E0
S11306A08B2D8460B82E09C024FF0AC09F2F96604A
S11306B0B92E06C028E030E005C020E130E002C0D9
S11306C020E132E0F801B7FE07C0608171818281C8
S11306D093810C5F1F4F06C06081718180E090E0C0
S11306E00E5F1F4FA4013AD2A82EA818FB2DFF7746
S11306F07F2E76FE0BC0372D3E7FA51450F474FE7A
S11307000AC072FC08C0372D3E7E05C0BA2C372DB6
S113071003C0BA2C01C0B52C34FF0DC0FE01EA0D94
S1130720F11D8081803311F4397E09C032FF06C087
S1130730B394B39404C0832F867809F0B39433FD43
S113074012C030FF06C05A2CB31418F4530C5B18B3
S1130750B32CB31460F4B70180E290E03C87C6D1B7
S1130760B3943C85F6CFB31410F43B1801C0312C7C
S113077034FF11C0B70180E390E03C87B7D13C85DA
S113078032FF16C031FD03C088E790E002C088E55F
S113079090E0B7010CC0832F867851F031FF02C07E
S11307A08BE201C080E237FD8DE2B70190E09ED17B
S11307B0A51430F4B70180E390E098D15A94F8CFAF
S11307C0AA94F401EA0DF11D8081B70190E08ED165
S11307D0A110F6CF332009F45DCEB70180E290E09A
S11307E085D13A94F7CFF7018681978102C08FEFC4
S11307F09FEF2C960FB6F894DEBF0FBECDBFDF91EE
S1130800CF911F910F91FF90EF90DF90CF90BF9009
S1130810AF909F908F907F906F905F904F903F909C
S11308202F9008950F931F93CF93DF93869F80019A
S1130830879F100D969F100D1124C8010DD0EC0157
S1130840009721F0A80160E070E03ED1CE01DF9175
S1130850CF911F910F910895CF93DF93823091052B
S113086010F482E090E0E091B101F091B20120E057
S113087030E0C0E0D0E0309711F140815181481759
S11308805907C0F04817590761F482819381209772
S113089019F09B838A832BC09093B2018093B1019A
S11308A026C02115310519F04217530718F49A018F
S11308B0BE01DF01EF010280F381E02DDCCF2115C1
S11308C0310509F1281B390B2430310590F41296B7
S11308D08D919C9113976115710521F0FB01938310
S11308E0828304C09093B2018093B101FD013296DA
S11308F044C0FD01E20FF31F81939193225031090B
S11309002D933C933AC02091AF013091B001232B39
S113091041F420910201309103013093B0012093FE
S1130920AF0120910001309101012115310541F4FD
S11309302DB73EB74091040150910501241B350B9E
S1130940E091AF01F091B001E217F307A0F42E1B80
S11309503F0B2817390778F0AC014E5F5F4F24171F
S1130960350748F04E0F5F1F5093B0014093AF011D
S11309708193919302C0E0E0F0E0CF01DF91CF9149
S113098008950F931F93CF93DF93009709F48CC0BE
S1130990FC013297138212820091B1011091B201CD
S11309A00115110581F420813181820F931F20915B
S11309B0AF013091B0012817390779F5F093B001F0
S11309C0E093AF0171C0D80140E050E0AE17BF071B
S11309D050F412962D913C911397AD0121153105D8
S11309E009F1D901F3CF9D01DA01338322836081B8
S11309F07181860F971F8217930769F4EC01288190
S1130A003981260F371F2E5F3F4F318320838A8120
S1130A109B8193838283452B29F4F093B201E09365
S1130A20B10142C01396FC93EE931297ED014991E4
S1130A3059919E01240F351FE217F30771F4808149
S1130A409181840F951F029611969C938E938281B7
S1130A50938113969C938E931297E0E0F0E0D80173
S1130A6012968D919C911397009719F0F8018C01BF
S1130A70F6CF8D919C9198012E5F3F4F820F931F6B
S1130A802091AF013091B0012817390769F43097EC
S1130A9029F41092B2011092B10102C013821282A1
S1130AA01093B0010093AF01DF91CF911F910F918B
S1130AB00895FC010590615070400110D8F78095AD
S1130AC090958E0F9F1F0895DC0101C06D934150D6
S1130AD05040E0F70895FC0161507040019001100E
S1130AE0D8F7809590958E0F9F1F08950F931F93AD
S1130AF0CF93DF93FB01238121FD03C08FEF9FEF91
S1130B0028C022FF16C046815781248135814217AF
S1130B10530744F4A081B1819D012F5F3F4F31837E
S1130B2020838C93268137812F5F3F4F3783268321
S1130B3010C0EB01092F182F0084F185E02D0995D1
S1130B40892BE1F68E819F8101969F838E83812F6D
S1130B50902FDF91CF911F910F910895FA01AA2749
S1130B60283051F1203181F1E8946F936E7F6E5FEC
S1130B707F4F8F4F9F4FAF4FB1E03ED0B4E03CD09A
S1130B80670F781F891F9A1FA11D680F791F8A1F7D
S1130B90911DA11D6A0F711D811D911DA11D20D0E4
S1130BA009F468943F912AE0269F11243019305D9E
S1130BB03193DEF6CF010895462F4770405D41938F
S1130BC0B3E00FD0C9F7F6CF462F4F70405D4A33DC
S1130BD018F0495D31FD4052419302D0A9F7EACFA4
S1130BE0B4E0A6959795879577956795BA95C9F7D3
S1130BF000976105710508959B01AC010A2E0694C6
S1130C005795479537952795BA95C9F7620F731F7E
S10F0C10841F951FA01D0895F894FFCFC9
S1130C1C0000B30120000D0A496E697469616C69A6
S1130C2C7A6174696F6E20646F6E65000D0A2054CE
S1130C3C6865207061636B657420686173206265FC
S1130C4C656E207472616E736D697474656420735F
S1130C5C75636365737366756C6C790020636F647C
S1130C6C65203D202575000D0A20416E20657272A9
S1130C7C6F7220686173206F636375727265642090
S1130C8C696E207472616E736D697373696F6E0033
S9030000FC
