S01800004E65775F66726F6E745F6D6F64756C652E7372656375
S113000049C0000065C0000063C0000061C000007A
S11300105FC000005DC000005BC0000059C000006C
S113002057C0000055C0000053C0000051C000007C
S11300304FC000004DC000004BC0000049C000008C
S113004047C0000045C0000044C0000041C000009B
S11300503FC000003DC000003BC0000039C00000AC
S113006037C0000035C0000033C0000031C00000BC
S11300702FC000002DC000002BC0000029C00000CC
S113008027C0000025C0000023C0000021C00000DC
S11300901FC0000011241FBECFEFD0E1DEBFCDBFD3
S11300A011E0A0E0B1E0ECE2F4E100E00BBF02C03B
S11300B007900D92A033B107D9F721E0A0E3B1E096
S11300C001C01D92A736B207E1F7EED20C94140AD0
S11300D097CF1F920F920FB60F9211240BB60F9267
S11300E02F933F934F935F936F937F938F939F933C
S11300F0AF93BF93CF93EF93FF93EDEEF0E0C08106
S11301008091EC00682F70E0807F80837295629507
S11301106F7067277F7067278091EE008F7509F0F5
S113012098952091F2008091F300E0E3F1E090E0F3
S1130130880F991F880F991F880F991F229526955C
S11301402770822B918380838091EF008F7082834C
S113015090E0009759F0E3E3F1E08D5C9E4FAAEF45
S1130160B0E02C912193E817F907D9F71092EE002B
S113017080E88093EF00FB01EE0FFF1FE15CFE4F70
S11301800190F081E02D80E391E00995C093ED00AA
S1130190FF91EF91CF91BF91AF919F918F917F91FB
S11301A06F915F914F913F912F910F900BBE0F90E4
S11301B00FBE0F901F901895CF93DF93FB01208102
S11301C031812115384008F098959281993008F0D2
S11301D098958F3008F098958295807F8093ED00F4
S11301E08091EF00807C21F08091EE0086FF55C065
S11301F01092EE001092EF0082818F3F61F18081B6
S113020091819695879596958795969587958093F0
S1130210F30080818295880F807E8093F200109293
S1130220F1001092F0002281222379F0DF0113966D
S113023080E090E0CAEFD0E02D91288301962281DE
S1130240422F50E084179507B8F3EFEEF0E0808179
S1130250282B20831BC08081918196958795969544
S11302608795969587958093F30080818295880F72
S1130270807E8093F2001092F10084E08093F0007D
S1130280AFEEB0E09C918281892B8C93EFEEF0E08D
S113029080818064808381E001C080E0DF91CF9120
S11302A008958F3008F06DC0E82FF0E0EE0FFF1FC7
S11302B0E15CFE4F31832083982F9295907F909339
S11302C0ED00232BD9F41092EE001092EF0021E000
S11302D030E0A90102C0440F551F8A95E2F7CA0114
S11302E0EEEDF0E02081809582238083EFEDF0E055
S11302F0808190958923808380E008959091EF0018
S1130300907C09F040C01092EE00EFEEF0E0108215
S11303101092EC009B0136952795369527953695D6
S113032027952093F3006295660F607E6093F20038
S11303309A013695279536952795369527952093D6
S1130340F7004295440F407E4093F6001092F5006A
S11303501092F40090E8908321E030E0A90102C0FB
S1130360440F551F8A95E2F7CA01EEEDF0E02081B3
S1130370822B8083EFEDF0E08081892B808380E005
S1130380089581E0089581E00895CF93DF9386E096
S11303908093E2008CE08093E3008AE58093E4009C
S11303A080E0CDEED0E0AEEEB0E0EFEEF0E0982FDE
S11303B09295907F98831C9210828F5F8F30B9F74B
S11303C0E8EDF0E080818260808380EA8093DB0046
S11303D0DF91CF910895F894EFDE78940895CF9348
S11303E0DF93EC018C811F928F9389E091E09F93BE
S11303F08F931FD40F900F900F900F908881998145
S11304008530910519F0069799F01BC08B8184FF04
S113041004C091E090933E0102C010923E0185FF1A
S113042004C081E080933D010CC010923D0109C0DD
S11304308B81882324F481E080933C0102C01092D4
S11304403C01DF91CF9108959C012152334027371D
S1130450354058F4F8942CEA3DE0A901481B590BA7
S113046050939B0040939A0078940895CF93DF9320
S1130470EB011B82659B02C021E02B83BC016D5FF5
S11304807F4F48E050E0CE0103967CD3892B39F0AE
S1130490BE0180E0A0DF882311F0279A01C02798CD
S11304A0DF91CF910895509A6B9A6C9A6D98089544
S11304B0249A2C980895F7DFFBCF089520E030E0CC
S11304C0A901AAD1811102C073980895289886E3DE
S11304D011D18DE80FD1289A739A089560913C0147
S11304E070E080E090E035D2E9CF089520E030E07C
S11304F04FE753E4E4D220E030E040EC51E490D103
S11305009B01AC0160E070E08FE793E420D1F0D16F
S1130510CB010895CF92DF92EF92FF926B017C01A1
S113052020E030E040E451E4C6D218165CF020E04C
S113053030E040E450E4C701B6016ED1882354F49E
S1130540589811C00F2EC12CD12CF0E4EF2EF1E4F9
S1130550FF2EF02D289886E2CDD0C701B601C6DF64
S1130560C9D0289A589AFF90EF90DF90CF900895C1
S113057080913E01882331F060E070E080E391E4F3
S1130580C9CF089560E070E0CB01C4CF0895CF9245
S1130590DF92EF92FF926B017C0120E030E040ECAF
S11305A050E489D218165CF020E030E040E050E4DA
S11305B0C701B60131D1882364F4749813C00F2E97
S11305C0FDECCF2EFCECDF2EFCEEEF2EF0E4FF2E44
S11305D0F02D28988EE28ED0C701B60187DF8AD02D
S11305E0289A749AFF90EF90DF90CF9008958091AD
S11305F03D018823E1F160E070E080EA90E4C7DF28
S1130600809108018823A1F010923B01809106019A
S113061090910701883928E0920734F40A96909360
S113062007018093060104C081E080933B0104C06C
S113063080913B018823A9F0109208018091060162
S1130640909107018D3D25E0920734F00A9790932D
S113065007018093060105C081E080930801109290
S11306603B018091060190910701EECE089560E070
S113067070E0CB018CCF089561E083E390E050D02B
S113068084DE31D018DF2FEE31E044E050E065E045
S113069070E081E006DE89E191E09F938F93C9D2F7
S11306A078940F900F900895CF93DF93CDB7DEB772
S11306B066970FB6F894DEBF0FBECDBF23E030E0DF
S11306C03A83298381E08B833D872C878E87D4DF0F
S11306D04FDF8DDF03DFBE01645F7F4FCE010196E4
S11306E0C5DE8895F5CF84B18F6084B981E58CBD72
S11306F0289A08958EBD0DB407FEFDCF0895E0EC51
S1130700F0E0908195FFFDCF8093C60081E00895CD
S1130710E0ECF0E080818823ECF78091C600089536
S11307209093C5008093C40086E08093C200662342
S113073041F0E1ECF0E08081806180838081886019
S1130740808368E873E08FE793E029C208955058E6
S1130750BB27AA270ED075C166D130F06BD120F02B
S113076031F49F3F11F41EF45BC10EF4E095E7FBF6
S113077051C1E92F77D180F3BA1762077307840751
S1130780950718F071F49EF58FC10EF4E0950B2EC9
S1130790BA2FA02D0B01B90190010C01CA01A001CF
S11307A01124FF27591B99F0593F50F4503E68F12A
S11307B01A16F040A22F232F342F4427585FF3CF6B
S11307C0469537952795A795F0405395C9F77EF43C
S11307D01F16BA0B620B730B840BBAF09150A1F085
S11307E0FF0FBB1F661F771F881FC2F70EC0BA0F0B
S11307F0621F731F841F48F4879577956795B79593
S1130800F7959E3F08F0B3CF9395880F08F099278A
S1130810EE0F979587950895D9D008F481E008954F
S11308200CD00FC107D140F0FED030F021F45F3F6F
S113083019F0F0C0511139C1F3C014D198F39923C0
S1130840C9F35523B1F3951B550BBB27AA27621790
S11308507307840738F09F5F5F4F220F331F441FD5
S1130860AA1FA9F333D00E2E3AF0E0E830D091500D
S11308705040E695001CCAF729D0FE2F27D0660FFA
S1130880771F881FBB1F261737074807AB07B0E839
S113089009F0BB0B802DBF01FF2793585F4F2AF04F
S11308A09E3F510568F0B6C000C15F3FECF3983E2F
S11308B0DCF3869577956795B795F7959F5FC9F7AC
S11308C0880F911D9695879597F90895E1E0660F35
S11308D0771F881FBB1F621773078407BA0720F0AE
S11308E0621B730B840BBA0BEE1F88F7E095089517
S11308F004D06894B111D9C00895BCD088F09F5732
S113090090F0B92F9927B751A0F0D1F0660F771F57
S1130910881F991F1AF0BA95C9F712C0B13081F037
S1130920C3D0B1E00895C0C0672F782F8827B85F7F
S113093039F0B93FCCF3869577956795B395D9F798
S11309403EF490958095709561957F4F8F4F9F4FA2
S11309500895E89409C097FB3EF4909580957095AE
S113096061957F4F8F4F9F4F9923A9F0F92F96E9F7
S1130970BB279395F695879577956795B795F1116C
S1130980F8CFFAF4BB0F11F460FF1BC06F5F7F4F09
S11309908F4F9F4F16C0882311F096E911C077231B
S11309A021F09EE8872F762F05C0662371F096E824
S11309B0862F70E060E02AF09A95660F771F881FF3
S11309C0DAF7880F9695879597F90895990F000897
S11309D0550FAA0BE0E8FEEF16161706E807F9070D
S11309E0C0F012161306E407F50798F0621B730BA8
S11309F0840B950B39F40A2661F0232B242B252B29
S1130A0021F408950A2609F4A140A6958FEF811DCB
S1130A10811D089597F99F6780E870E060E008956C
S1130A209FEF80EC089500240A9416161706180602
S1130A300906089500240A941216130614060506DE
S1130A400895092E0394000C11F4882352F0BB0F6F
S1130A5040F4BF2B11F460FF04C06F5F7F4F8F4FD2
S1130A609F4F089557FD9058440F551F59F05F3F0D
S1130A7071F04795880F97FB991F61F09F3F79F0BC
S1130A8087950895121613061406551FF2CF46953E
S1130A90F1DF08C0161617061806991FF1CF8695C0
S1130AA07105610508940895E894BB2766277727A4
S1130AB0CB0197F908958ADF08F48FEF08950BD0DE
S1130AC0C0CFB1DF28F0B6DF18F0952309F0A2CF2C
S1130AD0A7CF1124EACFC6DFA0F3959FD1F3950FDA
S1130AE050E0551F629FF001729FBB27F00DB11DAE
S1130AF0639FAA27F00DB11DAA1F649F6627B00D3E
S1130B00A11D661F829F2227B00DA11D621F739F26
S1130B10B00DA11D621F839FA00D611D221F749F34
S1130B203327A00D611D231F849F600D211D822F7B
S1130B30762F6A2F11249F5750408AF0E1F08823C2
S1130B404AF0EE0FFF1FBB1F661F771F881F9150CF
S1130B505040A9F79E3F510570F05CCFA6CF5F3F90
S1130B60ECF3983EDCF3869577956795B795F79502
S1130B70E7959F5FC1F7FE2B880F911D969587958A
S1130B8097F90895FB01DC0104C08D91019080194F
S1130B9021F441505040C8F7881B990B08950F93D6
S1130BA01F93CF93DF93009731F46115710519F406
S1130BB080E090E039C08B01EC016EE070E081E0F0
S1130BC090E038D2FC01892B99F380E883830115E6
S1130BD0110571F01387028781E8838380915D0199
S1130BE090915E01892B21F4F0935E01E0935D0105
S1130BF02097C9F0D187C0878381826083838091E5
S1130C005F0190916001892B71F4F0936001E0938E
S1130C105F018091610190916201892B21F4F0932D
S1130C206201E0936101CF01DF91CF911F910F9198
S1130C300895CF93DF93CDB7DEB7AE014B5F5F4F1F
S1130C40FA0161917191AF0180915F01909160010E
S1130C5003D0DF91CF9108952F923F924F925F92EC
S1130C606F927F928F929F92AF92BF92CF92DF92B8
S1130C70EF92FF920F931F93CF93DF93CDB7DEB71D
S1130C802C970FB6F894DEBF0FBECDBF7C016B016D
S1130C908A01FC0117821682838181FFB0C1CE01D3
S1130CA001964C01F7019381F60193FD859193FF21
S1130CB081916F01882309F49EC1853239F493FD33
S1130CC0859193FF81916F01853221F4B70190E002
S1130CD015D3E8CF512C312C20E02032A0F48B32F4
S1130CE069F030F4803259F0833269F420612CC009
S1130CF08D3239F0803339F4216026C022602460BB
S1130D0023C0286021C027FD27C030ED380F3A30BA
S1130D1078F426FF06C0FAE05F9E300D1124532EAE
S1130D2013C08AE0389E300D1124332E20620CC08B
S1130D308E3221F426FD5FC1206406C08C3611F486
S1130D40206802C0883641F4F60193FD859193FF33
S1130D5081916F018111C1CF982F9F7D955493305C
S1130D6028F40C5F1F4FFFE3F9830DC0833631F085
S1130D70833771F0833509F057C021C0F8018081B1
S1130D8089830E5F1F4F44244394512C540114C093
S1130D903801F2E06F0E711CF801A080B18026FFCB
S1130DA003C0652D70E002C06FEF7FEFC5012C8793
S1130DB09AD22C0183012C852F77222E16C038015C
S1130DC0F2E06F0E711CF801A080B18026FF03C011
S1130DD0652D70E002C06FEF7FEFC5012C8771D2E3
S1130DE02C012C852068222E830123FC19C0832D1D
S1130DF090E048165906A0F4B70180E290E07ED254
S1130E003A94F5CFF50127FC859127FE81915F0186
S1130E10B70190E073D231103A94F1E04F1A5108BF
S1130E204114510479F7DEC0843611F0893631F566
S1130E30F80127FF07C060817181828193810C5F73
S1130E401F4F08C060817181072E000C880B990B1D
S1130E500E5F1F4F2F76722E97FF09C090958095D5
S1130E60709561957F4F8F4F9F4F2068722E2AE0B7
S1130E7030E0A4017BD2A82EA81843C0853729F4FA
S1130E802F7EB22E2AE030E025C0F22FF97FBF2E4C
S1130E908F36C1F018F4883579F0ADC0803719F079
S1130EA0883721F0A8C02F2F2061B22EB4FE0DC0C8
S1130EB08B2D8460B82E09C024FF0AC09F2F966032
S1130EC0B92E06C028E030E005C020E130E002C0C1
S1130ED020E132E0F801B7FE07C0608171818281B0
S1130EE093810C5F1F4F06C06081718180E090E0A8
S1130EF00E5F1F4FA4013AD2A82EA818FB2DFF772E
S1130F007F2E76FE0BC0372D3E7FA51450F474FE61
S1130F100AC072FC08C0372D3E7E05C0BA2C372D9E
S1130F2003C0BA2C01C0B52C34FF0DC0FE01EA0D7C
S1130F30F11D8081803311F4397E09C032FF06C06F
S1130F40B394B39404C0832F867809F0B39433FD2B
S1130F5012C030FF06C05A2CB31418F4530C5B189B
S1130F60B32CB31460F4B70180E290E03C87C6D19F
S1130F70B3943C85F6CFB31410F43B1801C0312C64
S1130F8034FF11C0B70180E390E03C87B7D13C85C2
S1130F9032FF16C031FD03C088E790E002C088E547
S1130FA090E0B7010CC0832F867851F031FF02C066
S1130FB08BE201C080E237FD8DE2B70190E09ED163
S1130FC0A51430F4B70180E390E098D15A94F8CF97
S1130FD0AA94F401EA0DF11D8081B70190E08ED14D
S1130FE0A110F6CF332009F45DCEB70180E290E082
S1130FF085D13A94F7CFF7018681978102C08FEFAC
S11310009FEF2C960FB6F894DEBF0FBECDBFDF91D5
S1131010CF911F910F91FF90EF90DF90CF90BF90F1
S1131020AF909F908F907F906F905F904F903F9084
S11310302F9008950F931F93CF93DF93869F800182
S1131040879F100D969F100D1124C8010DD0EC013F
S1131050009721F0A80160E070E03ED1CE01DF915D
S1131060CF911F910F910895CF93DF938230910513
S113107010F482E090E0E0916501F091660120E0D7
S113108030E0C0E0D0E0309711F140815181481741
S11310905907C0F04817590761F48281938120975A
S11310A019F09B838A832BC090936601809365011A
S11310B026C02115310519F04217530718F49A0177
S11310C0BE01DF01EF010280F381E02DDCCF2115A9
S11310D0310509F1281B390B2430310590F412969F
S11310E08D919C9113976115710521F0FB019383F8
S11310F0828304C09093660180936501FD0132965A
S113110044C0FD01E20FF31F8193919322503109F2
S11311102D933C933AC02091630130916401232BB9
S113112041F4209102013091030130936401209332
S1131130630120910001309101012115310541F431
S11311402DB73EB74091040150910501241B350B86
S1131150E0916301F0916401E217F307A0F42E1B00
S11311603F0B2817390778F0AC014E5F5F4F241707
S1131170350748F04E0F5F1F50936401409363019D
S11311808193919302C0E0E0F0E0CF01DF91CF9131
S113119008950F931F93CF93DF93009709F48CC0A6
S11311A0FC0132971382128200916501109166014D
S11311B00115110581F420813181820F931F209143
S11311C06301309164012817390779F5F0936401BC
S11311D0E093630171C0D80140E050E0AE17BF074F
S11311E050F412962D913C911397AD0121153105C0
S11311F009F1D901F3CF9D01DA01338322836081A0
S11312007181860F971F8217930769F4EC01288177
S11312103981260F371F2E5F3F4F318320838A8108
S11312209B8193838283452B29F4F0936601E09399
S1131230650142C01396FC93EE931297ED01499118
S113124059919E01240F351FE217F30771F4808131
S11312509181840F951F029611969C938E9382819F
S1131260938113969C938E931297E0E0F0E0D8015B
S113127012968D919C911397009719F0F8018C01A7
S1131280F6CF8D919C9198012E5F3F4F820F931F53
S113129020916301309164012817390769F430976C
S11312A029F4109266011092650102C01382128221
S11312B01093640100936301DF91CF911F910F910B
S11312C00895FC010590615070400110D8F7809595
S11312D090958E0F9F1F0895DC0101C06D934150BE
S11312E05040E0F70895FC016150704001900110F6
S11312F0D8F7809590958E0F9F1F08950F931F9395
S1131300CF93DF93FB01238121FD03C08FEF9FEF78
S113131028C022FF16C04681578124813581421797
S1131320530744F4A081B1819D012F5F3F4F318366
S113133020838C93268137812F5F3F4F3783268309
S113134010C0EB01092F182F0084F185E02D0995B9
S1131350892BE1F68E819F8101969F838E83812F55
S1131360902FDF91CF911F910F910895FA01AA2731
S1131370283051F1203181F1E8946F936E7F6E5FD4
S11313807F4F8F4F9F4FAF4FB1E03ED0B4E03CD082
S1131390670F781F891F9A1FA11D680F791F8A1F65
S11313A0911DA11D6A0F711D811D911DA11D20D0CC
S11313B009F468943F912AE0269F11243019305D86
S11313C03193DEF6CF010895462F4770405D419377
S11313D0B3E00FD0C9F7F6CF462F4F70405D4A33C4
S11313E018F0495D31FD4052419302D0A9F7EACF8C
S11313F0B4E0A6959795879577956795BA95C9F7BB
S113140000976105710508959B01AC010A2E0694AD
S11314105795479537952795BA95C9F7620F731F66
S10F1420841F951FA01D0895F894FFCFB1
S113142C000067012000DC05010D0A702D3E64618B
S113143C74615B315D202575000D0A496E69746910
S113144C616C697A6174696F6E20646F6E650000FB
S9030000FC
